{
  "contractName": "luckBlocksNodesCFG",
  "abi": [
    {
      "inputs": [
        {
          "internalType": "address",
          "name": "_lbnodes",
          "type": "address"
        }
      ],
      "stateMutability": "nonpayable",
      "type": "constructor"
    },
    {
      "anonymous": false,
      "inputs": [
        {
          "indexed": true,
          "internalType": "uint256",
          "name": "tokenId",
          "type": "uint256"
        },
        {
          "indexed": false,
          "internalType": "uint256",
          "name": "amount",
          "type": "uint256"
        },
        {
          "indexed": true,
          "internalType": "address",
          "name": "owner",
          "type": "address"
        }
      ],
      "name": "NftRewarded",
      "type": "event"
    },
    {
      "anonymous": false,
      "inputs": [
        {
          "indexed": true,
          "internalType": "uint256",
          "name": "tokenId",
          "type": "uint256"
        },
        {
          "indexed": true,
          "internalType": "address",
          "name": "owner",
          "type": "address"
        }
      ],
      "name": "NftStaked",
      "type": "event"
    },
    {
      "anonymous": false,
      "inputs": [
        {
          "indexed": true,
          "internalType": "uint256",
          "name": "tokenId",
          "type": "uint256"
        },
        {
          "indexed": true,
          "internalType": "address",
          "name": "owner",
          "type": "address"
        }
      ],
      "name": "NftUnstaked",
      "type": "event"
    },
    {
      "anonymous": false,
      "inputs": [
        {
          "indexed": true,
          "internalType": "address",
          "name": "previousOwner",
          "type": "address"
        },
        {
          "indexed": true,
          "internalType": "address",
          "name": "newOwner",
          "type": "address"
        }
      ],
      "name": "OwnershipTransferred",
      "type": "event"
    },
    {
      "inputs": [
        {
          "internalType": "address",
          "name": "",
          "type": "address"
        }
      ],
      "name": "activeAddress",
      "outputs": [
        {
          "internalType": "bool",
          "name": "",
          "type": "bool"
        }
      ],
      "stateMutability": "view",
      "type": "function"
    },
    {
      "inputs": [
        {
          "internalType": "uint256",
          "name": "",
          "type": "uint256"
        }
      ],
      "name": "activenodes",
      "outputs": [
        {
          "internalType": "uint256",
          "name": "",
          "type": "uint256"
        }
      ],
      "stateMutability": "view",
      "type": "function"
    },
    {
      "inputs": [],
      "name": "luckblocksB",
      "outputs": [
        {
          "internalType": "contract Iluckblocks",
          "name": "",
          "type": "address"
        }
      ],
      "stateMutability": "view",
      "type": "function"
    },
    {
      "inputs": [],
      "name": "luckblocksE",
      "outputs": [
        {
          "internalType": "contract Iluckblocks",
          "name": "",
          "type": "address"
        }
      ],
      "stateMutability": "view",
      "type": "function"
    },
    {
      "inputs": [],
      "name": "luckblocksK",
      "outputs": [
        {
          "internalType": "contract Iluckblocks",
          "name": "",
          "type": "address"
        }
      ],
      "stateMutability": "view",
      "type": "function"
    },
    {
      "inputs": [],
      "name": "luckblocksM",
      "outputs": [
        {
          "internalType": "contract Iluckblocks",
          "name": "",
          "type": "address"
        }
      ],
      "stateMutability": "view",
      "type": "function"
    },
    {
      "inputs": [
        {
          "internalType": "uint256",
          "name": "",
          "type": "uint256"
        }
      ],
      "name": "nodes",
      "outputs": [
        {
          "internalType": "address",
          "name": "owner",
          "type": "address"
        },
        {
          "internalType": "uint256",
          "name": "totalProfit",
          "type": "uint256"
        }
      ],
      "stateMutability": "view",
      "type": "function"
    },
    {
      "inputs": [],
      "name": "owner",
      "outputs": [
        {
          "internalType": "address",
          "name": "",
          "type": "address"
        }
      ],
      "stateMutability": "view",
      "type": "function"
    },
    {
      "inputs": [],
      "name": "renounceOwnership",
      "outputs": [],
      "stateMutability": "nonpayable",
      "type": "function"
    },
    {
      "inputs": [
        {
          "internalType": "address",
          "name": "newOwner",
          "type": "address"
        }
      ],
      "name": "transferOwnership",
      "outputs": [],
      "stateMutability": "nonpayable",
      "type": "function"
    },
    {
      "inputs": [
        {
          "internalType": "uint256",
          "name": "",
          "type": "uint256"
        }
      ],
      "name": "waitingnodes",
      "outputs": [
        {
          "internalType": "uint256",
          "name": "",
          "type": "uint256"
        }
      ],
      "stateMutability": "view",
      "type": "function"
    },
    {
      "inputs": [
        {
          "internalType": "uint256[]",
          "name": "_activenodes",
          "type": "uint256[]"
        }
      ],
      "name": "setArray",
      "outputs": [],
      "stateMutability": "nonpayable",
      "type": "function"
    },
    {
      "inputs": [
        {
          "internalType": "address",
          "name": "lbb",
          "type": "address"
        },
        {
          "internalType": "address",
          "name": "lbk",
          "type": "address"
        },
        {
          "internalType": "address",
          "name": "lbe",
          "type": "address"
        },
        {
          "internalType": "address",
          "name": "lbm",
          "type": "address"
        }
      ],
      "name": "setLuckblocksAddrs",
      "outputs": [],
      "stateMutability": "nonpayable",
      "type": "function"
    },
    {
      "inputs": [
        {
          "internalType": "uint256",
          "name": "tokenId",
          "type": "uint256"
        }
      ],
      "name": "stake",
      "outputs": [],
      "stateMutability": "nonpayable",
      "type": "function"
    },
    {
      "inputs": [
        {
          "internalType": "uint256",
          "name": "tokenId",
          "type": "uint256"
        }
      ],
      "name": "unstake",
      "outputs": [],
      "stateMutability": "nonpayable",
      "type": "function"
    },
    {
      "inputs": [
        {
          "internalType": "address",
          "name": "_caller",
          "type": "address"
        }
      ],
      "name": "getUserActivation",
      "outputs": [
        {
          "internalType": "bool",
          "name": "",
          "type": "bool"
        }
      ],
      "stateMutability": "view",
      "type": "function"
    },
    {
      "inputs": [
        {
          "internalType": "address",
          "name": "caller",
          "type": "address"
        },
        {
          "internalType": "uint256[]",
          "name": "_nodes",
          "type": "uint256[]"
        },
        {
          "internalType": "uint256",
          "name": "lottery",
          "type": "uint256"
        }
      ],
      "name": "activateNodes",
      "outputs": [],
      "stateMutability": "nonpayable",
      "type": "function"
    },
    {
      "inputs": [
        {
          "internalType": "uint256",
          "name": "lottery",
          "type": "uint256"
        }
      ],
      "name": "resetQueue",
      "outputs": [],
      "stateMutability": "nonpayable",
      "type": "function"
    },
    {
      "inputs": [
        {
          "internalType": "address",
          "name": "caller",
          "type": "address"
        },
        {
          "internalType": "uint256",
          "name": "reward",
          "type": "uint256"
        }
      ],
      "name": "updateNodeInfoB",
      "outputs": [
        {
          "internalType": "bool",
          "name": "success",
          "type": "bool"
        }
      ],
      "stateMutability": "nonpayable",
      "type": "function"
    },
    {
      "inputs": [
        {
          "internalType": "address",
          "name": "caller",
          "type": "address"
        },
        {
          "internalType": "uint256",
          "name": "reward",
          "type": "uint256"
        }
      ],
      "name": "updateNodeInfoK",
      "outputs": [
        {
          "internalType": "bool",
          "name": "success",
          "type": "bool"
        }
      ],
      "stateMutability": "nonpayable",
      "type": "function"
    },
    {
      "inputs": [
        {
          "internalType": "address",
          "name": "caller",
          "type": "address"
        },
        {
          "internalType": "uint256",
          "name": "reward",
          "type": "uint256"
        }
      ],
      "name": "updateNodeInfoE",
      "outputs": [
        {
          "internalType": "bool",
          "name": "success",
          "type": "bool"
        }
      ],
      "stateMutability": "nonpayable",
      "type": "function"
    },
    {
      "inputs": [
        {
          "internalType": "address",
          "name": "caller",
          "type": "address"
        },
        {
          "internalType": "uint256",
          "name": "reward",
          "type": "uint256"
        }
      ],
      "name": "updateNodeInfoM",
      "outputs": [
        {
          "internalType": "bool",
          "name": "success",
          "type": "bool"
        }
      ],
      "stateMutability": "nonpayable",
      "type": "function"
    }
  ],
  "bytecode": "0x60806040523480156200001157600080fd5b50604051620040be380380620040be833981810160405260208110156200003757600080fd5b8101908080519060200190929190505050620000686200005c620000b760201b60201c565b620000bf60201b60201c565b6001808190555080600260006101000a81548173ffffffffffffffffffffffffffffffffffffffff021916908373ffffffffffffffffffffffffffffffffffffffff1602179055505062000183565b600033905090565b60008060009054906101000a900473ffffffffffffffffffffffffffffffffffffffff169050816000806101000a81548173ffffffffffffffffffffffffffffffffffffffff021916908373ffffffffffffffffffffffffffffffffffffffff1602179055508173ffffffffffffffffffffffffffffffffffffffff168173ffffffffffffffffffffffffffffffffffffffff167f8be0079c531659141344cd1fd0a4f28419497f9722a3daafe3b4186f6b6457e060405160405180910390a35050565b613f2b80620001936000396000f3fe608060405234801561001057600080fd5b50600436106101425760003560e01c806370204831116100b8578063a540dc151161007c578063a540dc15146106a3578063a694fc3a146106d7578063ba99540514610705578063bc7a261c14610769578063f14c2744146107c3578063f2fde38b1461080557610142565b80637020483114610573578063715018a6146105cd57806383080a69146105d75780638da5cb5b1461063b5780638ed92a8a1461066f57610142565b8063259220c61161010a578063259220c6146103d95780632e17de781461041b57806342bdbd5d14610449578063501d75e21461047d578063526dcdba146104e15780635ef68d711461054557610142565b806308d71642146101475780630b3ca3b4146101ff57806317005c9b146102a25780631c53c280146103465780631fc97ee0146103a5575b600080fd5b6101fd6004803603602081101561015d57600080fd5b810190808035906020019064010000000081111561017a57600080fd5b82018360208201111561018c57600080fd5b803590602001918460208302840111640100000000831117156101ae57600080fd5b919080806020026020016040519081016040528093929190818152602001838360200280828437600081840152601f19601f820116905080830192505050505050509192919290505050610849565b005b6102a06004803603606081101561021557600080fd5b81019080803573ffffffffffffffffffffffffffffffffffffffff1690602001909291908035906020019064010000000081111561025257600080fd5b82018360208201111561026457600080fd5b8035906020019184602083028401116401000000008311171561028657600080fd5b909192939192939080359060200190929190505050610863565b005b610344600480360360808110156102b857600080fd5b81019080803573ffffffffffffffffffffffffffffffffffffffff169060200190929190803573ffffffffffffffffffffffffffffffffffffffff169060200190929190803573ffffffffffffffffffffffffffffffffffffffff169060200190929190803573ffffffffffffffffffffffffffffffffffffffff169060200190929190505050610f8e565b005b6103726004803603602081101561035c57600080fd5b810190808035906020019092919050505061124b565b604051808373ffffffffffffffffffffffffffffffffffffffff1681526020018281526020019250505060405180910390f35b6103ad61128f565b604051808273ffffffffffffffffffffffffffffffffffffffff16815260200191505060405180910390f35b610405600480360360208110156103ef57600080fd5b81019080803590602001909291905050506112b5565b6040518082815260200191505060405180910390f35b6104476004803603602081101561043157600080fd5b81019080803590602001909291905050506112d9565b005b61045161181a565b604051808273ffffffffffffffffffffffffffffffffffffffff16815260200191505060405180910390f35b6104c96004803603604081101561049357600080fd5b81019080803573ffffffffffffffffffffffffffffffffffffffff16906020019092919080359060200190929190505050611840565b60405180821515815260200191505060405180910390f35b61052d600480360360408110156104f757600080fd5b81019080803573ffffffffffffffffffffffffffffffffffffffff16906020019092919080359060200190929190505050611e01565b60405180821515815260200191505060405180910390f35b6105716004803603602081101561055b57600080fd5b81019080803590602001909291905050506123c2565b005b6105b56004803603602081101561058957600080fd5b81019080803573ffffffffffffffffffffffffffffffffffffffff169060200190929190505050612a49565b60405180821515815260200191505060405180910390f35b6105d5612a9f565b005b610623600480360360408110156105ed57600080fd5b81019080803573ffffffffffffffffffffffffffffffffffffffff16906020019092919080359060200190929190505050612b5a565b60405180821515815260200191505060405180910390f35b61064361311b565b604051808273ffffffffffffffffffffffffffffffffffffffff16815260200191505060405180910390f35b610677613144565b604051808273ffffffffffffffffffffffffffffffffffffffff16815260200191505060405180910390f35b6106ab61316a565b604051808273ffffffffffffffffffffffffffffffffffffffff16815260200191505060405180910390f35b610703600480360360208110156106ed57600080fd5b8101908080359060200190929190505050613190565b005b6107516004803603604081101561071b57600080fd5b81019080803573ffffffffffffffffffffffffffffffffffffffff16906020019092919080359060200190929190505050613567565b60405180821515815260200191505060405180910390f35b6107ab6004803603602081101561077f57600080fd5b81019080803573ffffffffffffffffffffffffffffffffffffffff169060200190929190505050613b28565b60405180821515815260200191505060405180910390f35b6107ef600480360360208110156107d957600080fd5b8101908080359060200190929190505050613b48565b6040518082815260200191505060405180910390f35b6108476004803603602081101561081b57600080fd5b81019080803573ffffffffffffffffffffffffffffffffffffffff169060200190929190505050613b6c565b005b80600b908051906020019061085f929190613e37565b5050565b600181141561098c5761012c600360009054906101000a900473ffffffffffffffffffffffffffffffffffffffff1673ffffffffffffffffffffffffffffffffffffffff1663a84c1a6e6040518163ffffffff1660e01b815260040160206040518083038186803b1580156108d757600080fd5b505afa1580156108eb573d6000803e3d6000fd5b505050506040513d602081101561090157600080fd5b8101908080519060200190929190505050014211610987576040517f08c379a000000000000000000000000000000000000000000000000000000000815260040180806020018281038252601b8152602001807f6175746f5370696e20706172616d6574657273206e6f74206d6574000000000081525060200191505060405180910390fd5b610d06565b6002811415610ab557610258600460009054906101000a900473ffffffffffffffffffffffffffffffffffffffff1673ffffffffffffffffffffffffffffffffffffffff1663a84c1a6e6040518163ffffffff1660e01b815260040160206040518083038186803b158015610a0057600080fd5b505afa158015610a14573d6000803e3d6000fd5b505050506040513d6020811015610a2a57600080fd5b8101908080519060200190929190505050014211610ab0576040517f08c379a000000000000000000000000000000000000000000000000000000000815260040180806020018281038252601b8152602001807f6175746f5370696e20706172616d6574657273206e6f74206d6574000000000081525060200191505060405180910390fd5b610d05565b6003811415610bde57610384600560009054906101000a900473ffffffffffffffffffffffffffffffffffffffff1673ffffffffffffffffffffffffffffffffffffffff1663a84c1a6e6040518163ffffffff1660e01b815260040160206040518083038186803b158015610b2957600080fd5b505afa158015610b3d573d6000803e3d6000fd5b505050506040513d6020811015610b5357600080fd5b8101908080519060200190929190505050014211610bd9576040517f08c379a000000000000000000000000000000000000000000000000000000000815260040180806020018281038252601b8152602001807f6175746f5370696e20706172616d6574657273206e6f74206d6574000000000081525060200191505060405180910390fd5b610d04565b6004811415610d0357610708600660009054906101000a900473ffffffffffffffffffffffffffffffffffffffff1673ffffffffffffffffffffffffffffffffffffffff1663a84c1a6e6040518163ffffffff1660e01b815260040160206040518083038186803b158015610c5257600080fd5b505afa158015610c66573d6000803e3d6000fd5b505050506040513d6020811015610c7c57600080fd5b8101908080519060200190929190505050014211610d02576040517f08c379a000000000000000000000000000000000000000000000000000000000815260040180806020018281038252601b8152602001807f6175746f5370696e20706172616d6574657273206e6f74206d6574000000000081525060200191505060405180910390fd5b5b5b5b5b6000600b805480602002602001604051908101604052809291908181526020018280548015610d5457602002820191906000526020600020905b815481526020019060010190808311610d40575b505050505090506000600c805480602002602001604051908101604052809291908181526020018280548015610da957602002820191906000526020600020905b815481526020019060010190808311610d95575b5050505050905060005b85859050811015610f2d57600d6000878784818110610dce57fe5b90506020020135815260200190815260200160002060000160009054906101000a900473ffffffffffffffffffffffffffffffffffffffff1673ffffffffffffffffffffffffffffffffffffffff168773ffffffffffffffffffffffffffffffffffffffff161415610f20576000805b8451811015610e8e57878784818110610e5357fe5b90506020020135858281518110610e6657fe5b60200260200101511415610e8157809150610e8082613cad565b5b8080600101915050610e3e565b5060005b8351811015610ee257878784818110610ea757fe5b90506020020135848281518110610eba57fe5b60200260200101511415610ed557809150610ed482613d0c565b5b8080600101915050610e92565b50600c878784818110610ef157fe5b905060200201359080600181540180825580915050600190039060005260206000200160009091909190915055505b8080600101915050610db3565b506001600e60008873ffffffffffffffffffffffffffffffffffffffff1673ffffffffffffffffffffffffffffffffffffffff16815260200190815260200160002060006101000a81548160ff021916908315150217905550505050505050565b610f96613d6b565b73ffffffffffffffffffffffffffffffffffffffff16610fb461311b565b73ffffffffffffffffffffffffffffffffffffffff161461103d576040517f08c379a00000000000000000000000000000000000000000000000000000000081526004018080602001828103825260208152602001807f4f776e61626c653a2063616c6c6572206973206e6f7420746865206f776e657281525060200191505060405180910390fd5b83600360006101000a81548173ffffffffffffffffffffffffffffffffffffffff021916908373ffffffffffffffffffffffffffffffffffffffff16021790555083600760006101000a81548173ffffffffffffffffffffffffffffffffffffffff021916908373ffffffffffffffffffffffffffffffffffffffff16021790555082600460006101000a81548173ffffffffffffffffffffffffffffffffffffffff021916908373ffffffffffffffffffffffffffffffffffffffff16021790555082600860006101000a81548173ffffffffffffffffffffffffffffffffffffffff021916908373ffffffffffffffffffffffffffffffffffffffff16021790555081600560006101000a81548173ffffffffffffffffffffffffffffffffffffffff021916908373ffffffffffffffffffffffffffffffffffffffff16021790555081600960006101000a81548173ffffffffffffffffffffffffffffffffffffffff021916908373ffffffffffffffffffffffffffffffffffffffff16021790555080600660006101000a81548173ffffffffffffffffffffffffffffffffffffffff021916908373ffffffffffffffffffffffffffffffffffffffff16021790555080600a60006101000a81548173ffffffffffffffffffffffffffffffffffffffff021916908373ffffffffffffffffffffffffffffffffffffffff16021790555050505050565b600d6020528060005260406000206000915090508060000160009054906101000a900473ffffffffffffffffffffffffffffffffffffffff16908060010154905082565b600560009054906101000a900473ffffffffffffffffffffffffffffffffffffffff1681565b600b81815481106112c557600080fd5b906000526020600020016000915090505481565b60026001541415611352576040517f08c379a000000000000000000000000000000000000000000000000000000000815260040180806020018281038252601f8152602001807f5265656e7472616e637947756172643a207265656e7472616e742063616c6c0081525060200191505060405180910390fd5b60026001819055503373ffffffffffffffffffffffffffffffffffffffff16600d600083815260200190815260200160002060000160009054906101000a900473ffffffffffffffffffffffffffffffffffffffff1673ffffffffffffffffffffffffffffffffffffffff1614611431576040517f08c379a00000000000000000000000000000000000000000000000000000000081526004018080602001828103825260198152602001807f596f7520646f6e2774206f776e207468697320746f6b656e210000000000000081525060200191505060405180910390fd5b600080600b80548060200260200160405190810160405280929190818152602001828054801561148057602002820191906000526020600020905b81548152602001906001019080831161146c575b505050505090506000600c8054806020026020016040519081016040528092919081815260200182805480156114d557602002820191906000526020600020905b8154815260200190600101908083116114c1575b505050505090506000805b83518110156115bc57858482815181106114f657fe5b602002602001015114156115af5780945061151085613cad565b60006040518060400160405280600073ffffffffffffffffffffffffffffffffffffffff1681526020016000815250905080600d600089815260200190815260200160002060008201518160000160006101000a81548173ffffffffffffffffffffffffffffffffffffffff021916908373ffffffffffffffffffffffffffffffffffffffff1602179055506020820151816001015590505060019250505b80806001019150506114e0565b506000151581151514156116a75760005b82518110156116a557858382815181106115e357fe5b60200260200101511415611698578094506115fd85613d0c565b60006040518060400160405280600073ffffffffffffffffffffffffffffffffffffffff1681526020016000815250905080600d600089815260200190815260200160002060008201518160000160006101000a81548173ffffffffffffffffffffffffffffffffffffffff021916908373ffffffffffffffffffffffffffffffffffffffff16021790555060208201518160010155905050505b80806001019150506115cd565b505b600260009054906101000a900473ffffffffffffffffffffffffffffffffffffffff1673ffffffffffffffffffffffffffffffffffffffff166323b872dd3033886040518463ffffffff1660e01b8152600401808473ffffffffffffffffffffffffffffffffffffffff1681526020018373ffffffffffffffffffffffffffffffffffffffff1681526020018281526020019350505050600060405180830381600087803b15801561175857600080fd5b505af115801561176c573d6000803e3d6000fd5b505050506000600e60003373ffffffffffffffffffffffffffffffffffffffff1673ffffffffffffffffffffffffffffffffffffffff16815260200190815260200160002060006101000a81548160ff0219169083151502179055503373ffffffffffffffffffffffffffffffffffffffff16857fbb2077f337bd1e98e90720b76bd9fa0584cbbaab1ef0ef58a3c21fbf7a6e92f560405160405180910390a3505050506001808190555050565b600460009054906101000a900473ffffffffffffffffffffffffffffffffffffffff1681565b6000610258600460009054906101000a900473ffffffffffffffffffffffffffffffffffffffff1673ffffffffffffffffffffffffffffffffffffffff1663a84c1a6e6040518163ffffffff1660e01b815260040160206040518083038186803b1580156118ad57600080fd5b505afa1580156118c1573d6000803e3d6000fd5b505050506040513d60208110156118d757600080fd5b810190808051906020019092919050505001421161195d576040517f08c379a000000000000000000000000000000000000000000000000000000000815260040180806020018281038252601b8152602001807f6175746f5370696e20706172616d6574657273206e6f74206d6574000000000081525060200191505060405180910390fd5b6000833a434244600143034030611972613d6b565b604051602001808973ffffffffffffffffffffffffffffffffffffffff1681526020018881526020018781526020018681526020018581526020018481526020018373ffffffffffffffffffffffffffffffffffffffff1681526020018273ffffffffffffffffffffffffffffffffffffffff168152602001985050505050505050506040516020818303038152906040528051906020012060001c90506000600b805490501115611bbe576000600b805490508281611a2e57fe5b0690506000600b8281548110611a4057fe5b906000526020600020015490506000600d600083815260200190815260200160002060000160009054906101000a900473ffffffffffffffffffffffffffffffffffffffff1690508673ffffffffffffffffffffffffffffffffffffffff168173ffffffffffffffffffffffffffffffffffffffff1614611b0c576040517f08c379a000000000000000000000000000000000000000000000000000000000815260040180806020018281038252602e815260200180613ec8602e913960400191505060405180910390fd5b85600d600084815260200190815260200160002060010160008282540192505081905550611b3983613cad565b600c8290806001815401808255809150506001900390600052602060002001600090919091909150558073ffffffffffffffffffffffffffffffffffffffff16827f4b1add556a0689b6ac7acc7e98208425d1e5604780aa5e3021596395955827ad886040518082815260200191505060405180910390a36001945050505050611dfb565b6000600c805490501115611df5576000600c805490508281611bdc57fe5b0690506000600c8281548110611bee57fe5b906000526020600020015490506000600d600083815260200190815260200160002060000160009054906101000a900473ffffffffffffffffffffffffffffffffffffffff1690508673ffffffffffffffffffffffffffffffffffffffff168173ffffffffffffffffffffffffffffffffffffffff1614611cba576040517f08c379a000000000000000000000000000000000000000000000000000000000815260040180806020018281038252602e815260200180613ec8602e913960400191505060405180910390fd5b85600d6000848152602001908152602001600020600101600082825401925050819055506000600c805480602002602001604051908101604052809291908181526020018280548015611d2c57602002820191906000526020600020905b815481526020019060010190808311611d18575b5050505050905060005b8151811015611d97576000828281518110611d4d57fe5b60200260200101519050611d6082613d0c565b600b819080600181540180825580915050600190039060005260206000200160009091909190915055508080600101915050611d36565b508173ffffffffffffffffffffffffffffffffffffffff16837f4b1add556a0689b6ac7acc7e98208425d1e5604780aa5e3021596395955827ad896040518082815260200191505060405180910390a3600195505050505050611dfb565b60009150505b92915050565b6000610384600560009054906101000a900473ffffffffffffffffffffffffffffffffffffffff1673ffffffffffffffffffffffffffffffffffffffff1663a84c1a6e6040518163ffffffff1660e01b815260040160206040518083038186803b158015611e6e57600080fd5b505afa158015611e82573d6000803e3d6000fd5b505050506040513d6020811015611e9857600080fd5b8101908080519060200190929190505050014211611f1e576040517f08c379a000000000000000000000000000000000000000000000000000000000815260040180806020018281038252601b8152602001807f6175746f5370696e20706172616d6574657273206e6f74206d6574000000000081525060200191505060405180910390fd5b6000833a434244600143034030611f33613d6b565b604051602001808973ffffffffffffffffffffffffffffffffffffffff1681526020018881526020018781526020018681526020018581526020018481526020018373ffffffffffffffffffffffffffffffffffffffff1681526020018273ffffffffffffffffffffffffffffffffffffffff168152602001985050505050505050506040516020818303038152906040528051906020012060001c90506000600b80549050111561217f576000600b805490508281611fef57fe5b0690506000600b828154811061200157fe5b906000526020600020015490506000600d600083815260200190815260200160002060000160009054906101000a900473ffffffffffffffffffffffffffffffffffffffff1690508673ffffffffffffffffffffffffffffffffffffffff168173ffffffffffffffffffffffffffffffffffffffff16146120cd576040517f08c379a000000000000000000000000000000000000000000000000000000000815260040180806020018281038252602e815260200180613ec8602e913960400191505060405180910390fd5b85600d6000848152602001908152602001600020600101600082825401925050819055506120fa83613cad565b600c8290806001815401808255809150506001900390600052602060002001600090919091909150558073ffffffffffffffffffffffffffffffffffffffff16827f4b1add556a0689b6ac7acc7e98208425d1e5604780aa5e3021596395955827ad886040518082815260200191505060405180910390a360019450505050506123bc565b6000600c8054905011156123b6576000600c80549050828161219d57fe5b0690506000600c82815481106121af57fe5b906000526020600020015490506000600d600083815260200190815260200160002060000160009054906101000a900473ffffffffffffffffffffffffffffffffffffffff1690508673ffffffffffffffffffffffffffffffffffffffff168173ffffffffffffffffffffffffffffffffffffffff161461227b576040517f08c379a000000000000000000000000000000000000000000000000000000000815260040180806020018281038252602e815260200180613ec8602e913960400191505060405180910390fd5b85600d6000848152602001908152602001600020600101600082825401925050819055506000600c8054806020026020016040519081016040528092919081815260200182805480156122ed57602002820191906000526020600020905b8154815260200190600101908083116122d9575b5050505050905060005b815181101561235857600082828151811061230e57fe5b6020026020010151905061232182613d0c565b600b8190806001815401808255809150506001900390600052602060002001600090919091909150555080806001019150506122f7565b508173ffffffffffffffffffffffffffffffffffffffff16837f4b1add556a0689b6ac7acc7e98208425d1e5604780aa5e3021596395955827ad896040518082815260200191505060405180910390a36001955050505050506123bc565b60009150505b92915050565b60018114156124eb57610168600360009054906101000a900473ffffffffffffffffffffffffffffffffffffffff1673ffffffffffffffffffffffffffffffffffffffff1663a84c1a6e6040518163ffffffff1660e01b815260040160206040518083038186803b15801561243657600080fd5b505afa15801561244a573d6000803e3d6000fd5b505050506040513d602081101561246057600080fd5b81019080805190602001909291905050500142116124e6576040517f08c379a000000000000000000000000000000000000000000000000000000000815260040180806020018281038252601b8152602001807f6175746f5370696e20706172616d6574657273206e6f74206d6574000000000081525060200191505060405180910390fd5b612865565b600281141561261457610294600460009054906101000a900473ffffffffffffffffffffffffffffffffffffffff1673ffffffffffffffffffffffffffffffffffffffff1663a84c1a6e6040518163ffffffff1660e01b815260040160206040518083038186803b15801561255f57600080fd5b505afa158015612573573d6000803e3d6000fd5b505050506040513d602081101561258957600080fd5b810190808051906020019092919050505001421161260f576040517f08c379a000000000000000000000000000000000000000000000000000000000815260040180806020018281038252601b8152602001807f6175746f5370696e20706172616d6574657273206e6f74206d6574000000000081525060200191505060405180910390fd5b612864565b600381141561273d576103c0600560009054906101000a900473ffffffffffffffffffffffffffffffffffffffff1673ffffffffffffffffffffffffffffffffffffffff1663a84c1a6e6040518163ffffffff1660e01b815260040160206040518083038186803b15801561268857600080fd5b505afa15801561269c573d6000803e3d6000fd5b505050506040513d60208110156126b257600080fd5b8101908080519060200190929190505050014211612738576040517f08c379a000000000000000000000000000000000000000000000000000000000815260040180806020018281038252601b8152602001807f6175746f5370696e20706172616d6574657273206e6f74206d6574000000000081525060200191505060405180910390fd5b612863565b600481141561286257610744600660009054906101000a900473ffffffffffffffffffffffffffffffffffffffff1673ffffffffffffffffffffffffffffffffffffffff1663a84c1a6e6040518163ffffffff1660e01b815260040160206040518083038186803b1580156127b157600080fd5b505afa1580156127c5573d6000803e3d6000fd5b505050506040513d60208110156127db57600080fd5b8101908080519060200190929190505050014211612861576040517f08c379a000000000000000000000000000000000000000000000000000000000815260040180806020018281038252601b8152602001807f6175746f5370696e20706172616d6574657273206e6f74206d6574000000000081525060200191505060405180910390fd5b5b5b5b5b6000600b8054806020026020016040519081016040528092919081815260200182805480156128b357602002820191906000526020600020905b81548152602001906001019080831161289f575b505050505090506000600c80548060200260200160405190810160405280929190818152602001828054801561290857602002820191906000526020600020905b8154815260200190600101908083116128f4575b5050505050905060005b82518110156129de57600083828151811061292957fe5b602002602001015190506000600d600083815260200190815260200160002060000160009054906101000a900473ffffffffffffffffffffffffffffffffffffffff1690506000600e60008373ffffffffffffffffffffffffffffffffffffffff1673ffffffffffffffffffffffffffffffffffffffff16815260200190815260200160002060006101000a81548160ff0219169083151502179055506129cf83613cad565b50508080600101915050612912565b5060005b8151811015612a435760008282815181106129f957fe5b60200260200101519050612a0c82613d0c565b600b8190806001815401808255809150506001900390600052602060002001600090919091909150555080806001019150506129e2565b50505050565b6000600e60008373ffffffffffffffffffffffffffffffffffffffff1673ffffffffffffffffffffffffffffffffffffffff16815260200190815260200160002060009054906101000a900460ff169050919050565b612aa7613d6b565b73ffffffffffffffffffffffffffffffffffffffff16612ac561311b565b73ffffffffffffffffffffffffffffffffffffffff1614612b4e576040517f08c379a00000000000000000000000000000000000000000000000000000000081526004018080602001828103825260208152602001807f4f776e61626c653a2063616c6c6572206973206e6f7420746865206f776e657281525060200191505060405180910390fd5b612b586000613d73565b565b6000610708600660009054906101000a900473ffffffffffffffffffffffffffffffffffffffff1673ffffffffffffffffffffffffffffffffffffffff1663a84c1a6e6040518163ffffffff1660e01b815260040160206040518083038186803b158015612bc757600080fd5b505afa158015612bdb573d6000803e3d6000fd5b505050506040513d6020811015612bf157600080fd5b8101908080519060200190929190505050014211612c77576040517f08c379a000000000000000000000000000000000000000000000000000000000815260040180806020018281038252601b8152602001807f6175746f5370696e20706172616d6574657273206e6f74206d6574000000000081525060200191505060405180910390fd5b6000833a434244600143034030612c8c613d6b565b604051602001808973ffffffffffffffffffffffffffffffffffffffff1681526020018881526020018781526020018681526020018581526020018481526020018373ffffffffffffffffffffffffffffffffffffffff1681526020018273ffffffffffffffffffffffffffffffffffffffff168152602001985050505050505050506040516020818303038152906040528051906020012060001c90506000600b805490501115612ed8576000600b805490508281612d4857fe5b0690506000600b8281548110612d5a57fe5b906000526020600020015490506000600d600083815260200190815260200160002060000160009054906101000a900473ffffffffffffffffffffffffffffffffffffffff1690508673ffffffffffffffffffffffffffffffffffffffff168173ffffffffffffffffffffffffffffffffffffffff1614612e26576040517f08c379a000000000000000000000000000000000000000000000000000000000815260040180806020018281038252602e815260200180613ec8602e913960400191505060405180910390fd5b85600d600084815260200190815260200160002060010160008282540192505081905550612e5383613cad565b600c8290806001815401808255809150506001900390600052602060002001600090919091909150558073ffffffffffffffffffffffffffffffffffffffff16827f4b1add556a0689b6ac7acc7e98208425d1e5604780aa5e3021596395955827ad886040518082815260200191505060405180910390a36001945050505050613115565b6000600c80549050111561310f576000600c805490508281612ef657fe5b0690506000600c8281548110612f0857fe5b906000526020600020015490506000600d600083815260200190815260200160002060000160009054906101000a900473ffffffffffffffffffffffffffffffffffffffff1690508673ffffffffffffffffffffffffffffffffffffffff168173ffffffffffffffffffffffffffffffffffffffff1614612fd4576040517f08c379a000000000000000000000000000000000000000000000000000000000815260040180806020018281038252602e815260200180613ec8602e913960400191505060405180910390fd5b85600d6000848152602001908152602001600020600101600082825401925050819055506000600c80548060200260200160405190810160405280929190818152602001828054801561304657602002820191906000526020600020905b815481526020019060010190808311613032575b5050505050905060005b81518110156130b157600082828151811061306757fe5b6020026020010151905061307a82613d0c565b600b819080600181540180825580915050600190039060005260206000200160009091909190915055508080600101915050613050565b508173ffffffffffffffffffffffffffffffffffffffff16837f4b1add556a0689b6ac7acc7e98208425d1e5604780aa5e3021596395955827ad896040518082815260200191505060405180910390a3600195505050505050613115565b60009150505b92915050565b60008060009054906101000a900473ffffffffffffffffffffffffffffffffffffffff16905090565b600360009054906101000a900473ffffffffffffffffffffffffffffffffffffffff1681565b600660009054906101000a900473ffffffffffffffffffffffffffffffffffffffff1681565b60026001541415613209576040517f08c379a000000000000000000000000000000000000000000000000000000000815260040180806020018281038252601f8152602001807f5265656e7472616e637947756172643a207265656e7472616e742063616c6c0081525060200191505060405180910390fd5b60026001819055503373ffffffffffffffffffffffffffffffffffffffff16600260009054906101000a900473ffffffffffffffffffffffffffffffffffffffff1673ffffffffffffffffffffffffffffffffffffffff16636352211e836040518263ffffffff1660e01b81526004018082815260200191505060206040518083038186803b15801561329b57600080fd5b505afa1580156132af573d6000803e3d6000fd5b505050506040513d60208110156132c557600080fd5b810190808051906020019092919050505073ffffffffffffffffffffffffffffffffffffffff161461335f576040517f08c379a00000000000000000000000000000000000000000000000000000000081526004018080602001828103825260208152602001807f63616c6c6572206973206e6f74206f776e6572206e6f7220617070726f76656481525060200191505060405180910390fd5b600260009054906101000a900473ffffffffffffffffffffffffffffffffffffffff1673ffffffffffffffffffffffffffffffffffffffff166323b872dd3330846040518463ffffffff1660e01b8152600401808473ffffffffffffffffffffffffffffffffffffffff1681526020018373ffffffffffffffffffffffffffffffffffffffff1681526020018281526020019350505050600060405180830381600087803b15801561341057600080fd5b505af1158015613424573d6000803e3d6000fd5b50505050600060405180604001604052803373ffffffffffffffffffffffffffffffffffffffff1681526020016000815250905080600d600084815260200190815260200160002060008201518160000160006101000a81548173ffffffffffffffffffffffffffffffffffffffff021916908373ffffffffffffffffffffffffffffffffffffffff160217905550602082015181600101559050506000600e60003373ffffffffffffffffffffffffffffffffffffffff1673ffffffffffffffffffffffffffffffffffffffff16815260200190815260200160002060006101000a81548160ff0219169083151502179055503373ffffffffffffffffffffffffffffffffffffffff16827f0963ee0e6876bdf9af2bc7b27074202f8cfd6c0f4a4209072fe49f603e1064af60405160405180910390a3506001808190555050565b600061012c600360009054906101000a900473ffffffffffffffffffffffffffffffffffffffff1673ffffffffffffffffffffffffffffffffffffffff1663a84c1a6e6040518163ffffffff1660e01b815260040160206040518083038186803b1580156135d457600080fd5b505afa1580156135e8573d6000803e3d6000fd5b505050506040513d60208110156135fe57600080fd5b8101908080519060200190929190505050014211613684576040517f08c379a000000000000000000000000000000000000000000000000000000000815260040180806020018281038252601b8152602001807f6175746f5370696e20706172616d6574657273206e6f74206d6574000000000081525060200191505060405180910390fd5b6000833a434244600143034030613699613d6b565b604051602001808973ffffffffffffffffffffffffffffffffffffffff1681526020018881526020018781526020018681526020018581526020018481526020018373ffffffffffffffffffffffffffffffffffffffff1681526020018273ffffffffffffffffffffffffffffffffffffffff168152602001985050505050505050506040516020818303038152906040528051906020012060001c90506000600b8054905011156138e5576000600b80549050828161375557fe5b0690506000600b828154811061376757fe5b906000526020600020015490506000600d600083815260200190815260200160002060000160009054906101000a900473ffffffffffffffffffffffffffffffffffffffff1690508673ffffffffffffffffffffffffffffffffffffffff168173ffffffffffffffffffffffffffffffffffffffff1614613833576040517f08c379a000000000000000000000000000000000000000000000000000000000815260040180806020018281038252602e815260200180613ec8602e913960400191505060405180910390fd5b85600d60008481526020019081526020016000206001016000828254019250508190555061386083613cad565b600c8290806001815401808255809150506001900390600052602060002001600090919091909150558073ffffffffffffffffffffffffffffffffffffffff16827f4b1add556a0689b6ac7acc7e98208425d1e5604780aa5e3021596395955827ad886040518082815260200191505060405180910390a36001945050505050613b22565b6000600c805490501115613b1c576000600c80549050828161390357fe5b0690506000600c828154811061391557fe5b906000526020600020015490506000600d600083815260200190815260200160002060000160009054906101000a900473ffffffffffffffffffffffffffffffffffffffff1690508673ffffffffffffffffffffffffffffffffffffffff168173ffffffffffffffffffffffffffffffffffffffff16146139e1576040517f08c379a000000000000000000000000000000000000000000000000000000000815260040180806020018281038252602e815260200180613ec8602e913960400191505060405180910390fd5b85600d6000848152602001908152602001600020600101600082825401925050819055506000600c805480602002602001604051908101604052809291908181526020018280548015613a5357602002820191906000526020600020905b815481526020019060010190808311613a3f575b5050505050905060005b8151811015613abe576000828281518110613a7457fe5b60200260200101519050613a8782613d0c565b600b819080600181540180825580915050600190039060005260206000200160009091909190915055508080600101915050613a5d565b508173ffffffffffffffffffffffffffffffffffffffff16837f4b1add556a0689b6ac7acc7e98208425d1e5604780aa5e3021596395955827ad896040518082815260200191505060405180910390a3600195505050505050613b22565b60009150505b92915050565b600e6020528060005260406000206000915054906101000a900460ff1681565b600c8181548110613b5857600080fd5b906000526020600020016000915090505481565b613b74613d6b565b73ffffffffffffffffffffffffffffffffffffffff16613b9261311b565b73ffffffffffffffffffffffffffffffffffffffff1614613c1b576040517f08c379a00000000000000000000000000000000000000000000000000000000081526004018080602001828103825260208152602001807f4f776e61626c653a2063616c6c6572206973206e6f7420746865206f776e657281525060200191505060405180910390fd5b600073ffffffffffffffffffffffffffffffffffffffff168173ffffffffffffffffffffffffffffffffffffffff161415613ca1576040517f08c379a0000000000000000000000000000000000000000000000000000000008152600401808060200182810382526026815260200180613ea26026913960400191505060405180910390fd5b613caa81613d73565b50565b600b6001600b805490500381548110613cc257fe5b9060005260206000200154600b8281548110613cda57fe5b9060005260206000200181905550600b805480613cf357fe5b6001900381819060005260206000200160009055905550565b600c6001600c805490500381548110613d2157fe5b9060005260206000200154600c8281548110613d3957fe5b9060005260206000200181905550600c805480613d5257fe5b6001900381819060005260206000200160009055905550565b600033905090565b60008060009054906101000a900473ffffffffffffffffffffffffffffffffffffffff169050816000806101000a81548173ffffffffffffffffffffffffffffffffffffffff021916908373ffffffffffffffffffffffffffffffffffffffff1602179055508173ffffffffffffffffffffffffffffffffffffffff168173ffffffffffffffffffffffffffffffffffffffff167f8be0079c531659141344cd1fd0a4f28419497f9722a3daafe3b4186f6b6457e060405160405180910390a35050565b828054828255906000526020600020908101928215613e73579160200282015b82811115613e72578251825591602001919060010190613e57565b5b509050613e809190613e84565b5090565b5b80821115613e9d576000816000905550600101613e85565b509056fe4f776e61626c653a206e6577206f776e657220697320746865207a65726f20616464726573737468652063616c6c6572207365747570206973206e6f7420746865206f776e6572206f662074686520746f6b656ea264697066735822122003412f6f6a095aaa450afa1743002658c73f1079bca327d8b3a24ad99217ebe664736f6c63430007060033",
  "immutableReferences": {},
  "source": "// SPDX-License-Identifier: MIT\npragma solidity ^0.7.6;\n\n\nimport \"@openzeppelin/contracts/utils/Context.sol\";\nimport \"@openzeppelin/contracts/math/SafeMath.sol\";\nimport \"@openzeppelin/contracts/introspection/IERC165.sol\";\n/**\n * @dev Required interface of an ERC721 compliant contract.\n */\ninterface IERC721 is IERC165 {\n    /**\n     * @dev Emitted when `tokenId` token is transferred from `from` to `to`.\n     */\n    event Transfer(address indexed from, address indexed to, uint256 indexed tokenId);\n\n    /**\n     * @dev Emitted when `owner` enables `approved` to manage the `tokenId` token.\n     */\n    event Approval(address indexed owner, address indexed approved, uint256 indexed tokenId);\n\n    /**\n     * @dev Emitted when `owner` enables or disables (`approved`) `operator` to manage all of its assets.\n     */\n    event ApprovalForAll(address indexed owner, address indexed operator, bool approved);\n\n    /**\n     * @dev Returns the number of tokens in ``owner``'s account.\n     */\n    function balanceOf(address owner) external view returns (uint256 balance);\n\n    /**\n     * @dev Returns the owner of the `tokenId` token.\n     *\n     * Requirements:\n     *\n     * - `tokenId` must exist.\n     */\n    function ownerOf(uint256 tokenId) external view returns (address owner);\n\n    /**\n     * @dev Safely transfers `tokenId` token from `from` to `to`.\n     *\n     * Requirements:\n     *\n     * - `from` cannot be the zero address.\n     * - `to` cannot be the zero address.\n     * - `tokenId` token must exist and be owned by `from`.\n     * - If the caller is not `from`, it must be approved to move this token by either {approve} or {setApprovalForAll}.\n     * - If `to` refers to a smart contract, it must implement {IIERC721eceiver-onIERC721eceived}, which is called upon a safe transfer.\n     *\n     * Emits a {Transfer} event.\n     */\n    function safeTransferFrom(\n        address from,\n        address to,\n        uint256 tokenId,\n        bytes calldata data\n    ) external;\n\n    /**\n     * @dev Safely transfers `tokenId` token from `from` to `to`, checking first that contract recipients\n     * are aware of the ERC721 protocol to prevent tokens from being forever locked.\n     *\n     * Requirements:\n     *\n     * - `from` cannot be the zero address.\n     * - `to` cannot be the zero address.\n     * - `tokenId` token must exist and be owned by `from`.\n     * - If the caller is not `from`, it must have been allowed to move this token by either {approve} or {setApprovalForAll}.\n     * - If `to` refers to a smart contract, it must implement {IIERC721eceiver-onIERC721eceived}, which is called upon a safe transfer.\n     *\n     * Emits a {Transfer} event.\n     */\n    function safeTransferFrom(\n        address from,\n        address to,\n        uint256 tokenId\n    ) external;\n\n    /**\n     * @dev Transfers `tokenId` token from `from` to `to`.\n     *\n     * WARNING: Note that the caller is responsible to confirm that the recipient is capable of receiving ERC721\n     * or else they may be permanently lost. Usage of {safeTransferFrom} prevents loss, though the caller must\n     * understand this adds an external call which potentially creates a reentrancy vulnerability.\n     *\n     * Requirements:\n     *\n     * - `from` cannot be the zero address.\n     * - `to` cannot be the zero address.\n     * - `tokenId` token must be owned by `from`.\n     * - If the caller is not `from`, it must be approved to move this token by either {approve} or {setApprovalForAll}.\n     *\n     * Emits a {Transfer} event.\n     */\n    function transferFrom(\n        address from,\n        address to,\n        uint256 tokenId\n    ) external;\n\n    /**\n     * @dev Gives permission to `to` to transfer `tokenId` token to another account.\n     * The approval is cleared when the token is transferred.\n     *\n     * Only a single account can be approved at a time, so approving the zero address clears previous approvals.\n     *\n     * Requirements:\n     *\n     * - The caller must own the token or be an approved operator.\n     * - `tokenId` must exist.\n     *\n     * Emits an {Approval} event.\n     */\n    function approve(address to, uint256 tokenId) external;\n\n    /**\n     * @dev Approve or remove `operator` as an operator for the caller.\n     * Operators can call {transferFrom} or {safeTransferFrom} for any token owned by the caller.\n     *\n     * Requirements:\n     *\n     * - The `operator` cannot be the caller.\n     *\n     * Emits an {ApprovalForAll} event.\n     */\n    function setApprovalForAll(address operator, bool _approved) external;\n\n    /**\n     * @dev Returns the account approved for `tokenId` token.\n     *\n     * Requirements:\n     *\n     * - `tokenId` must exist.\n     */\n    function getApproved(uint256 tokenId) external view returns (address operator);\n\n    /**\n     * @dev Returns if the `operator` is allowed to manage all of the assets of `owner`.\n     *\n     * See {setApprovalForAll}\n     */\n    function isApprovedForAll(address owner, address operator) external view returns (bool);\n}\n// \n/**\n * @dev Contract module which provides a basic access control mechanism, where\n * there is an account (an owner) that can be granted exclusive access to\n * specific functions.\n *\n * By default, the owner account will be the one that deploys the contract. This\n * can later be changed with {transferOwnership}.\n *\n * This module is used through inheritance. It will make available the modifier\n * `onlyOwner`, which can be applied to your functions to restrict their use to\n * the owner.\n */\nabstract contract Ownable is Context {\n    address private _owner;\n\n    event OwnershipTransferred(address indexed previousOwner, address indexed newOwner);\n\n    /**\n     * @dev Initializes the contract setting the deployer as the initial owner.\n     */\n    constructor() {\n        _setOwner(_msgSender());\n    }\n\n    /**\n     * @dev Returns the address of the current owner.\n     */\n    function owner() public view virtual returns (address) {\n        return _owner;\n    }\n\n    /**\n     * @dev Throws if called by any account other than the owner.\n     */\n    modifier onlyOwner() {\n        require(owner() == _msgSender(), \"Ownable: caller is not the owner\");\n        _;\n    }\n\n    /**\n     * @dev Leaves the contract without owner. It will not be possible to call\n     * `onlyOwner` functions anymore. Can only be called by the current owner.\n     *\n     * NOTE: Renouncing ownership will leave the contract without an owner,\n     * thereby removing any functionality that is only available to the owner.\n     */\n    function renounceOwnership() public virtual onlyOwner {\n        _setOwner(address(0));\n    }\n\n    /**\n     * @dev Transfers ownership of the contract to a new account (`newOwner`).\n     * Can only be called by the current owner.\n     */\n    function transferOwnership(address newOwner) public virtual onlyOwner {\n        require(newOwner != address(0), \"Ownable: new owner is the zero address\");\n        _setOwner(newOwner);\n    }\n\n    function _setOwner(address newOwner) private {\n        address oldOwner = _owner;\n        _owner = newOwner;\n        emit OwnershipTransferred(oldOwner, newOwner);\n    }\n}\n\n/**\n * @dev Contract module that helps prevent reentrant calls to a function.\n *\n * Inheriting from `ReentrancyGuard` will make the {nonReentrant} modifier\n * available, which can be applied to functions to make sure there are no nested\n * (reentrant) calls to them.\n *\n * Note that because there is a single `nonReentrant` guard, functions marked as\n * `nonReentrant` may not call one another. This can be worked around by making\n * those functions `private`, and then adding `external` `nonReentrant` entry\n * points to them.\n *\n * TIP: If you would like to learn more about reentrancy and alternative ways\n * to protect against it, check out our blog post\n * https://blog.openzeppelin.com/reentrancy-after-istanbul/[Reentrancy After Istanbul].\n */\nabstract contract ReentrancyGuard {\n    // Booleans are more expensive than uint256 or any type that takes up a full\n    // word because each write operation emits an extra SLOAD to first read the\n    // slot's contents, replace the bits taken up by the boolean, and then write\n    // back. This is the compiler's defense against contract upgrades and\n    // pointer aliasing, and it cannot be disabled.\n\n    // The values being non-zero value makes deployment a bit more expensive,\n    // but in exchange the refund on every call to nonReentrant will be lower in\n    // amount. Since refunds are capped to a percentage of the total\n    // transaction's gas, it is best to keep them low in cases like this one, to\n    // increase the likelihood of the full refund coming into effect.\n    uint256 private constant _NOT_ENTERED = 1;\n    uint256 private constant _ENTERED = 2;\n\n    uint256 private _status;\n\n    constructor () {\n        _status = _NOT_ENTERED;\n    }\n\n    /**\n     * @dev Prevents a contract from calling itself, directly or indirectly.\n     * Calling a `nonReentrant` function from another `nonReentrant`\n     * function is not supported. It is possible to prevent this from happening\n     * by making the `nonReentrant` function external, and make it call a\n     * `private` function that does the actual work.\n     */\n    modifier nonReentrant() {\n        // On the first call to nonReentrant, _notEntered will be true\n        require(_status != _ENTERED, \"ReentrancyGuard: reentrant call\");\n\n        // Any calls to nonReentrant after this point will fail\n        _status = _ENTERED;\n\n        _;\n\n        // By storing the original value once again, a refund is triggered (see\n        // https://eips.ethereum.org/EIPS/eip-2200)\n        _status = _NOT_ENTERED;\n    }\n}\n\ninterface Iluckblocks {\n    \n    function getLatestPrice() external view returns (uint);    \n    function amountOfRegisters() external view returns(uint);\n    function currentJackpotInWei() external view returns(uint256);\n    function autoSpinTimestamp() external view returns(uint256);\n    function getJackpotWinnerByLotteryId(uint256 _requestCounter) external view returns (address);\n    function ourLastWinner() external view returns(address);\n    function ourLastJackpotWinner() external view returns(address);\n    function lastJackpotTimestamp() external view returns(uint256);\n\n}\n\n// Staking Smart contract that receives the luckblockNodes NFTs and works with the lotteries for automation and rewards\ncontract luckBlocksNodesCFG is Ownable,ReentrancyGuard {\n  using SafeMath for uint256;\n\n  IERC721 lbNodesNFTs;\n\n  Iluckblocks public luckblocksB;\n  Iluckblocks public luckblocksK;\n  Iluckblocks public luckblocksE;\n  Iluckblocks public luckblocksM;\n\n  address internal luckblocksBAddr;\n  address internal luckblocksKAddr;\n  address internal luckblocksEAddr;\n  address internal luckblocksMAddr;\n\n    // define NFT struct\n    struct Node {\n      address owner;\n      uint256 totalProfit;\n    }\n\n   uint[] public activenodes;\n\n   uint[] public waitingnodes;\n    \n   // tokenId to Node Info\n   mapping(uint256 => Node) public nodes;\n\n  // Mapping of active node staker address\n  mapping(address => bool) public activeAddress;\n\n  // Events list\n  event NftStaked(uint256 indexed tokenId, address indexed owner);\n  event NftUnstaked(uint256 indexed tokenId, address indexed owner);\n  event NftRewarded(uint256 indexed tokenId, uint256 amount, address indexed owner);\n\n  // initialize contract while deployment\n    constructor (address _lbnodes){\n      \n      lbNodesNFTs = IERC721(_lbnodes);\n\n    }\n\n    //For tests only\n    function setArray(uint[] memory _activenodes) public {\n        activenodes = _activenodes;\n    }\n\n    function setLuckblocksAddrs(address lbb, address lbk, address lbe , address lbm) public onlyOwner{\n     luckblocksB = Iluckblocks(lbb);\n     luckblocksBAddr = lbb;\n     luckblocksK = Iluckblocks(lbk);\n     luckblocksKAddr = lbk;\n     luckblocksE = Iluckblocks(lbe);\n     luckblocksEAddr = lbe;\n     luckblocksM = Iluckblocks(lbm);\n     luckblocksMAddr = lbm;\n    }\n\n    // Move the last element to the deleted spot.\n    // Remove the last element.\n    function clearActiveElement(uint index) internal {\n        activenodes[index] = activenodes[activenodes.length-1];\n        activenodes.pop();\n    }\n\n    function clearWaitingElement(uint index) internal {\n        waitingnodes[index] = waitingnodes[waitingnodes.length-1];\n        waitingnodes.pop();\n    }\n      \n    function stake(uint256 tokenId) public virtual nonReentrant {\n        \n        require(lbNodesNFTs.ownerOf(tokenId) == msg.sender, \"caller is not owner nor approved\");\n\n        //Stake token to participate in the node automation rewards\n        // Transfer the token from the wallet to the Smart contract\n        lbNodesNFTs.transferFrom(msg.sender,address(this),tokenId);\n\n        // Create node Token configuration\n        Node memory node = Node(msg.sender, 0);\n\n        nodes[tokenId] = node;        \n        \n        activeAddress[msg.sender] = false;\n\n        emit NftStaked(tokenId, msg.sender);\n\n    }\n\n    function unstake(uint256 tokenId) public virtual nonReentrant {\n              \n        // Wallet must own the token they are trying to withdraw\n        require(nodes[tokenId].owner == msg.sender, \"You don't own this token!\");\n\n        // Find the index of this token id in the nodes array\n        uint256 index = 0;\n        uint[] memory _activenodes = activenodes;\n        uint[] memory _waitingnodes = waitingnodes;\n\n        bool didDisabled = false;\n\n        for (uint256 i = 0; i < _activenodes.length; i++) {\n            if (\n                _activenodes[i] == tokenId\n            ) {\n                index = i;\n                clearActiveElement(index);\n                // Update the mapping of the tokenId to the be address(0) to indicate that the token is no longer staked\n                Node memory node = Node(address(0), 0);\n                nodes[tokenId] = node;\n                didDisabled = true;\n            }\n        }\n        \n        if(didDisabled == false){\n          for (uint256 i = 0; i < _waitingnodes.length; i++) {\n              if (\n                  _waitingnodes[i] == tokenId\n              ) {\n                  index = i;\n                  clearWaitingElement(index);\n                  // Update the mapping of the tokenId to the be address(0) to indicate that the token is no longer staked\n                  Node memory node = Node(address(0), 0);\n                  nodes[tokenId] = node;\n              }\n          }\n        }\n        // Transfer the token back to the withdrawer\n        lbNodesNFTs.transferFrom(address(this), msg.sender, tokenId);\n\n        activeAddress[msg.sender] = false;\n\n        emit NftUnstaked(tokenId, msg.sender);\n\n    }\n\n   function getUserActivation(address _caller) external view returns (bool) {\n       return activeAddress[_caller];\n   }\n\n   function activateNodes(address caller, uint256[] calldata _nodes , uint lottery) external {\n\n        if(lottery == 1){\n          require(block.timestamp > luckblocksB.autoSpinTimestamp() + 300,\"autoSpin parameters not met\");\n        } else if(lottery == 2) {\n          require(block.timestamp > luckblocksK.autoSpinTimestamp() + 600,\"autoSpin parameters not met\");\n        } else if(lottery == 3) {\n          require(block.timestamp > luckblocksE.autoSpinTimestamp() + 900,\"autoSpin parameters not met\");\n        } else if(lottery == 4) {\n          require(block.timestamp > luckblocksM.autoSpinTimestamp() + 1800,\"autoSpin parameters not met\");\n        }\n\n        uint[] memory _activenodes = activenodes;\n        uint[] memory _waitingnodes = waitingnodes;\n\n        for (uint i = 0; i < _nodes.length; i++) {\n          \n            if (caller == nodes[_nodes[i]].owner) {\n                // Find the index of this token id in the nodes array to reset user list in case already active with others nodes\n              uint256 index = 0;\n              for (uint t = 0; t < _activenodes.length; t++) {\n                  if (\n                      _activenodes[t] == _nodes[i]\n                  ) {\n                      index = t;\n                      clearActiveElement(index);\n                  }\n              }\n              \n              for (uint y = 0; y < _waitingnodes.length; y++) {\n                  if (\n                      _waitingnodes[y] == _nodes[i]\n                  ) {\n                      index = y;\n                      clearWaitingElement(index);\n                  }\n              }\n\n                // Add the token to the waitingQueue Array\n                waitingnodes.push(_nodes[i]);\n            }\n        }\n        //activate adress state\n        activeAddress[caller] = true;\n   }\n\n  function resetQueue(uint lottery) external {\n\n        if(lottery == 1){\n          require(block.timestamp > luckblocksB.autoSpinTimestamp() + 360,\"autoSpin parameters not met\");\n        } else if(lottery == 2) {\n          require(block.timestamp > luckblocksK.autoSpinTimestamp() + 660,\"autoSpin parameters not met\");\n        } else if(lottery == 3) {\n          require(block.timestamp > luckblocksE.autoSpinTimestamp() + 960,\"autoSpin parameters not met\");\n        } else if(lottery == 4) {\n          require(block.timestamp > luckblocksM.autoSpinTimestamp() + 1860,\"autoSpin parameters not met\");\n        }\n\n   //send the waiting nodes to the active nodes array and delist the active stucked nodes\n        uint[] memory _activenodes = activenodes;\n        uint[] memory _waitingnodes = waitingnodes;\n\n        for(uint a = 0; a < _activenodes.length; a++){\n          \n          uint256 node = _activenodes[a];\n\n          address ownerOfNode = nodes[node].owner;\n\n          //activate adress state\n          activeAddress[ownerOfNode] = false;\n\n          clearActiveElement(a);\n\n        }\n\n        for(uint i = 0; i < _waitingnodes.length; i++){\n          \n          uint256 nodeId = _waitingnodes[i];\n\n          clearWaitingElement(i);\n\n          activenodes.push(nodeId);\n\n        }\n  }\n\n   function updateNodeInfoB(address caller, uint256 reward) external returns(bool success) {\n\n        require(block.timestamp > luckblocksB.autoSpinTimestamp() + 300,\"autoSpin parameters not met\");\n\n        // pseudo random as the random result is not crucial for anything\n        uint256 randomNum = uint256(\n            keccak256(\n                abi.encode(\n                    caller,\n                    tx.gasprice,\n                    block.number,\n                    block.timestamp,\n                    block.difficulty,\n                    blockhash(block.number - 1),\n                    address(this),\n                    _msgSender()\n                )\n            )\n        );\n\n     //change from active to the waiting queue\n     if(activenodes.length > 0){\n\n        uint256 randomIndex = randomNum % activenodes.length;\n\n        // get choosen node infos\n        uint256 choosenNode = activenodes[randomIndex];\n        \n        address ownerOfNode = nodes[choosenNode].owner;\n\n        require(ownerOfNode == caller , \"the caller setup is not the owner of the token\");\n\n        nodes[choosenNode].totalProfit += reward;        \n\n        clearActiveElement(randomIndex);\n\n        waitingnodes.push(choosenNode);\n\n        emit NftRewarded(choosenNode, reward, ownerOfNode);\n\n        return true;\n\n\n     } else if(waitingnodes.length > 0) {\n      //send the waiting nodes to the active nodes array\n\n        uint256 randomIndex = randomNum % waitingnodes.length;\n\n        // get choosen node infos\n        uint256 choosenNode = waitingnodes[randomIndex];\n        \n        address ownerOfNode = nodes[choosenNode].owner;\n\n        require(ownerOfNode == caller , \"the caller setup is not the owner of the token\");\n        \n        nodes[choosenNode].totalProfit += reward;\n\n        uint[] memory _waitingnodes = waitingnodes;\n\n        for(uint i = 0; i < _waitingnodes.length; i++){\n          \n          uint256 nodeId = _waitingnodes[i];\n\n          clearWaitingElement(i);\n\n          activenodes.push(nodeId);\n\n        }\n       \n       emit NftRewarded(choosenNode, reward, ownerOfNode);\n\n       return true;\n\n     } else {\n\n       return false;\n\n     }\n      \n   }\n\n     function updateNodeInfoK(address caller, uint256 reward) external returns(bool success) {\n\n        require(block.timestamp > luckblocksK.autoSpinTimestamp() + 600,\"autoSpin parameters not met\");\n\n        // pseudo random as the random result is not crucial for anything\n        uint256 randomNum = uint256(\n            keccak256(\n                abi.encode(\n                    caller,\n                    tx.gasprice,\n                    block.number,\n                    block.timestamp,\n                    block.difficulty,\n                    blockhash(block.number - 1),\n                    address(this),\n                    _msgSender()\n                )\n            )\n        );\n\n     //change from active to the waiting queue\n     if(activenodes.length > 0){\n\n        uint256 randomIndex = randomNum % activenodes.length;\n\n        // get choosen node infos\n        uint256 choosenNode = activenodes[randomIndex];\n        \n        address ownerOfNode = nodes[choosenNode].owner;\n\n        require(ownerOfNode == caller , \"the caller setup is not the owner of the token\");\n        \n        nodes[choosenNode].totalProfit += reward;\n\n        clearActiveElement(randomIndex);\n\n        waitingnodes.push(choosenNode);\n\n        emit NftRewarded(choosenNode, reward, ownerOfNode);\n\n        return true;\n\n     } else if(waitingnodes.length > 0) {\n      //send the waiting nodes to the active nodes array\n\n        uint256 randomIndex = randomNum % waitingnodes.length;\n\n        // get choosen node infos\n        uint256 choosenNode = waitingnodes[randomIndex];\n        \n        address ownerOfNode = nodes[choosenNode].owner;\n\n        require(ownerOfNode == caller , \"the caller setup is not the owner of the token\");\n        \n        nodes[choosenNode].totalProfit += reward;\n\n        uint[] memory _waitingnodes = waitingnodes;\n\n        for(uint i = 0; i < _waitingnodes.length; i++){\n          \n          uint256 nodeId = _waitingnodes[i];\n\n          clearWaitingElement(i);\n\n          activenodes.push(nodeId);\n\n        }\n\n       emit NftRewarded(choosenNode, reward, ownerOfNode);\n\n       return true;\n\n     } else {\n\n       return false;\n\n     }\n   }\n\n      function updateNodeInfoE(address caller, uint256 reward) external returns(bool success) {\n\n        require(block.timestamp > luckblocksE.autoSpinTimestamp() + 900,\"autoSpin parameters not met\");\n\n        // pseudo random as the random result is not crucial for anything\n        uint256 randomNum = uint256(\n            keccak256(\n                abi.encode(\n                    caller,\n                    tx.gasprice,\n                    block.number,\n                    block.timestamp,\n                    block.difficulty,\n                    blockhash(block.number - 1),\n                    address(this),\n                    _msgSender()\n                )\n            )\n        );\n\n     //change from active to the waiting queue\n     if(activenodes.length > 0){\n\n        uint256 randomIndex = randomNum % activenodes.length;\n\n        // get choosen node infos\n        uint256 choosenNode = activenodes[randomIndex];\n        \n        address ownerOfNode = nodes[choosenNode].owner;\n\n        require(ownerOfNode == caller , \"the caller setup is not the owner of the token\");\n        \n        nodes[choosenNode].totalProfit += reward;\n\n        clearActiveElement(randomIndex);\n\n        waitingnodes.push(choosenNode);\n\n        emit NftRewarded(choosenNode, reward, ownerOfNode);\n\n        return true;\n\n     } else if(waitingnodes.length > 0) {\n      //send the waiting nodes to the active nodes array\n\n        uint256 randomIndex = randomNum % waitingnodes.length;\n\n        // get choosen node infos\n        uint256 choosenNode = waitingnodes[randomIndex];\n        \n        address ownerOfNode = nodes[choosenNode].owner;\n\n        require(ownerOfNode == caller , \"the caller setup is not the owner of the token\");\n        \n        nodes[choosenNode].totalProfit += reward;\n\n        uint[] memory _waitingnodes = waitingnodes;\n\n        for(uint i = 0; i < _waitingnodes.length; i++){\n          \n          uint256 nodeId = _waitingnodes[i];\n\n          clearWaitingElement(i);\n\n          activenodes.push(nodeId);\n\n        }\n       \n       emit NftRewarded(choosenNode, reward, ownerOfNode);\n\n       return true;\n\n     } else {\n\n       return false;\n\n     }\n   }\n\n      function updateNodeInfoM(address caller, uint256 reward) external returns(bool success) {\n\n        require(block.timestamp > luckblocksM.autoSpinTimestamp() + 1800,\"autoSpin parameters not met\");\n\n        // pseudo random as the random result is not crucial for anything\n        uint256 randomNum = uint256(\n            keccak256(\n                abi.encode(\n                    caller,\n                    tx.gasprice,\n                    block.number,\n                    block.timestamp,\n                    block.difficulty,\n                    blockhash(block.number - 1),\n                    address(this),\n                    _msgSender()\n                )\n            )\n        );\n\n     //change from active to the waiting queue\n     if(activenodes.length > 0){\n\n        uint256 randomIndex = randomNum % activenodes.length;\n\n        // get choosen node infos\n        uint256 choosenNode = activenodes[randomIndex];\n        \n        address ownerOfNode = nodes[choosenNode].owner;\n\n        require(ownerOfNode == caller , \"the caller setup is not the owner of the token\");\n        \n        nodes[choosenNode].totalProfit += reward;\n\n        clearActiveElement(randomIndex);\n\n        waitingnodes.push(choosenNode);\n        \n        emit NftRewarded(choosenNode, reward, ownerOfNode);\n\n        return true;\n\n     } else if(waitingnodes.length > 0) {\n      //send the waiting nodes to the active nodes array\n\n        uint256 randomIndex = randomNum % waitingnodes.length;\n\n        // get choosen node infos\n        uint256 choosenNode = waitingnodes[randomIndex];\n        \n        address ownerOfNode = nodes[choosenNode].owner;\n\n        require(ownerOfNode == caller , \"the caller setup is not the owner of the token\");\n        \n        nodes[choosenNode].totalProfit += reward;\n\n        uint[] memory _waitingnodes = waitingnodes;\n\n        for(uint i = 0; i < _waitingnodes.length; i++){\n          \n          uint256 nodeId = _waitingnodes[i];\n\n          clearWaitingElement(i);\n\n          activenodes.push(nodeId);\n\n        }\n        \n       emit NftRewarded(choosenNode, reward, ownerOfNode);\n\n       return true;\n\n     } else {\n\n       return false;\n\n     }\n   }\n\n}",
  "sourcePath": "/mnt/c/Users/AMD Ryzen/Downloads/Phallus-master/Phallus-master/src/contracts/LuckblocksNodesConfig.sol",
  "compiler": {
    "name": "solc",
    "version": "0.7.6+commit.7338295f.Emscripten.clang"
  },
  "schemaVersion": "3.4.7",
  "updatedAt": "2022-11-07T00:58:27.160Z",
  "devdoc": {
    "kind": "dev",
    "methods": {
      "owner()": {
        "details": "Returns the address of the current owner."
      },
      "renounceOwnership()": {
        "details": "Leaves the contract without owner. It will not be possible to call `onlyOwner` functions anymore. Can only be called by the current owner. NOTE: Renouncing ownership will leave the contract without an owner, thereby removing any functionality that is only available to the owner."
      },
      "transferOwnership(address)": {
        "details": "Transfers ownership of the contract to a new account (`newOwner`). Can only be called by the current owner."
      }
    },
    "version": 1
  },
  "userdoc": {
    "kind": "user",
    "methods": {},
    "version": 1
  }
}