{
  "contractName": "luckBlocksNodes",
  "abi": [
    {
      "inputs": [
        {
          "internalType": "uint96",
          "name": "_royaltyFeesInBips",
          "type": "uint96"
        },
        {
          "internalType": "string",
          "name": "_contractURI",
          "type": "string"
        }
      ],
      "stateMutability": "nonpayable",
      "type": "constructor"
    },
    {
      "anonymous": false,
      "inputs": [
        {
          "indexed": true,
          "internalType": "address",
          "name": "owner",
          "type": "address"
        },
        {
          "indexed": true,
          "internalType": "address",
          "name": "approved",
          "type": "address"
        },
        {
          "indexed": true,
          "internalType": "uint256",
          "name": "tokenId",
          "type": "uint256"
        }
      ],
      "name": "Approval",
      "type": "event"
    },
    {
      "anonymous": false,
      "inputs": [
        {
          "indexed": true,
          "internalType": "address",
          "name": "owner",
          "type": "address"
        },
        {
          "indexed": true,
          "internalType": "address",
          "name": "operator",
          "type": "address"
        },
        {
          "indexed": false,
          "internalType": "bool",
          "name": "approved",
          "type": "bool"
        }
      ],
      "name": "ApprovalForAll",
      "type": "event"
    },
    {
      "anonymous": false,
      "inputs": [
        {
          "indexed": true,
          "internalType": "uint256",
          "name": "tokenId",
          "type": "uint256"
        },
        {
          "indexed": true,
          "internalType": "address",
          "name": "owner",
          "type": "address"
        }
      ],
      "name": "NftBurned",
      "type": "event"
    },
    {
      "anonymous": false,
      "inputs": [
        {
          "indexed": true,
          "internalType": "uint256",
          "name": "remainingonphase",
          "type": "uint256"
        },
        {
          "indexed": true,
          "internalType": "address",
          "name": "owner",
          "type": "address"
        }
      ],
      "name": "NftMinted",
      "type": "event"
    },
    {
      "anonymous": false,
      "inputs": [
        {
          "indexed": true,
          "internalType": "address",
          "name": "previousOwner",
          "type": "address"
        },
        {
          "indexed": true,
          "internalType": "address",
          "name": "newOwner",
          "type": "address"
        }
      ],
      "name": "OwnershipTransferred",
      "type": "event"
    },
    {
      "anonymous": false,
      "inputs": [
        {
          "indexed": false,
          "internalType": "uint256",
          "name": "tokenId",
          "type": "uint256"
        },
        {
          "components": [
            {
              "internalType": "address payable",
              "name": "account",
              "type": "address"
            },
            {
              "internalType": "uint96",
              "name": "value",
              "type": "uint96"
            }
          ],
          "indexed": false,
          "internalType": "struct LibPart.Part[]",
          "name": "royalties",
          "type": "tuple[]"
        }
      ],
      "name": "RoyaltiesSet",
      "type": "event"
    },
    {
      "anonymous": false,
      "inputs": [
        {
          "indexed": true,
          "internalType": "address",
          "name": "from",
          "type": "address"
        },
        {
          "indexed": true,
          "internalType": "address",
          "name": "to",
          "type": "address"
        },
        {
          "indexed": true,
          "internalType": "uint256",
          "name": "tokenId",
          "type": "uint256"
        }
      ],
      "name": "Transfer",
      "type": "event"
    },
    {
      "inputs": [],
      "name": "activeSupply",
      "outputs": [
        {
          "internalType": "uint256",
          "name": "",
          "type": "uint256"
        }
      ],
      "stateMutability": "view",
      "type": "function",
      "constant": true
    },
    {
      "inputs": [
        {
          "internalType": "address",
          "name": "",
          "type": "address"
        }
      ],
      "name": "addressMintedBalance",
      "outputs": [
        {
          "internalType": "uint256",
          "name": "",
          "type": "uint256"
        }
      ],
      "stateMutability": "view",
      "type": "function",
      "constant": true
    },
    {
      "inputs": [
        {
          "internalType": "address",
          "name": "to",
          "type": "address"
        },
        {
          "internalType": "uint256",
          "name": "tokenId",
          "type": "uint256"
        }
      ],
      "name": "approve",
      "outputs": [],
      "stateMutability": "nonpayable",
      "type": "function"
    },
    {
      "inputs": [
        {
          "internalType": "address",
          "name": "owner",
          "type": "address"
        }
      ],
      "name": "balanceOf",
      "outputs": [
        {
          "internalType": "uint256",
          "name": "",
          "type": "uint256"
        }
      ],
      "stateMutability": "view",
      "type": "function",
      "constant": true
    },
    {
      "inputs": [],
      "name": "contractURI",
      "outputs": [
        {
          "internalType": "string",
          "name": "",
          "type": "string"
        }
      ],
      "stateMutability": "view",
      "type": "function",
      "constant": true
    },
    {
      "inputs": [],
      "name": "currentPhase",
      "outputs": [
        {
          "internalType": "uint256",
          "name": "",
          "type": "uint256"
        }
      ],
      "stateMutability": "view",
      "type": "function",
      "constant": true
    },
    {
      "inputs": [
        {
          "internalType": "uint256",
          "name": "tokenId",
          "type": "uint256"
        }
      ],
      "name": "getApproved",
      "outputs": [
        {
          "internalType": "address",
          "name": "",
          "type": "address"
        }
      ],
      "stateMutability": "view",
      "type": "function",
      "constant": true
    },
    {
      "inputs": [
        {
          "internalType": "uint256",
          "name": "id",
          "type": "uint256"
        }
      ],
      "name": "getRaribleV2Royalties",
      "outputs": [
        {
          "components": [
            {
              "internalType": "address payable",
              "name": "account",
              "type": "address"
            },
            {
              "internalType": "uint96",
              "name": "value",
              "type": "uint96"
            }
          ],
          "internalType": "struct LibPart.Part[]",
          "name": "",
          "type": "tuple[]"
        }
      ],
      "stateMutability": "view",
      "type": "function",
      "constant": true
    },
    {
      "inputs": [
        {
          "internalType": "address",
          "name": "owner",
          "type": "address"
        },
        {
          "internalType": "address",
          "name": "operator",
          "type": "address"
        }
      ],
      "name": "isApprovedForAll",
      "outputs": [
        {
          "internalType": "bool",
          "name": "",
          "type": "bool"
        }
      ],
      "stateMutability": "view",
      "type": "function",
      "constant": true
    },
    {
      "inputs": [],
      "name": "maxSupply",
      "outputs": [
        {
          "internalType": "uint256",
          "name": "",
          "type": "uint256"
        }
      ],
      "stateMutability": "view",
      "type": "function",
      "constant": true
    },
    {
      "inputs": [],
      "name": "name",
      "outputs": [
        {
          "internalType": "string",
          "name": "",
          "type": "string"
        }
      ],
      "stateMutability": "view",
      "type": "function",
      "constant": true
    },
    {
      "inputs": [],
      "name": "nftPerAddressLimit",
      "outputs": [
        {
          "internalType": "uint256",
          "name": "",
          "type": "uint256"
        }
      ],
      "stateMutability": "view",
      "type": "function",
      "constant": true
    },
    {
      "inputs": [],
      "name": "owner",
      "outputs": [
        {
          "internalType": "address",
          "name": "",
          "type": "address"
        }
      ],
      "stateMutability": "view",
      "type": "function",
      "constant": true
    },
    {
      "inputs": [
        {
          "internalType": "uint256",
          "name": "tokenId",
          "type": "uint256"
        }
      ],
      "name": "ownerOf",
      "outputs": [
        {
          "internalType": "address",
          "name": "",
          "type": "address"
        }
      ],
      "stateMutability": "view",
      "type": "function",
      "constant": true
    },
    {
      "inputs": [],
      "name": "price",
      "outputs": [
        {
          "internalType": "uint256",
          "name": "",
          "type": "uint256"
        }
      ],
      "stateMutability": "view",
      "type": "function",
      "constant": true
    },
    {
      "inputs": [],
      "name": "remainingonphase",
      "outputs": [
        {
          "internalType": "uint256",
          "name": "",
          "type": "uint256"
        }
      ],
      "stateMutability": "view",
      "type": "function",
      "constant": true
    },
    {
      "inputs": [],
      "name": "renounceOwnership",
      "outputs": [],
      "stateMutability": "nonpayable",
      "type": "function"
    },
    {
      "inputs": [
        {
          "internalType": "uint256",
          "name": "",
          "type": "uint256"
        },
        {
          "internalType": "uint256",
          "name": "",
          "type": "uint256"
        }
      ],
      "name": "royalties",
      "outputs": [
        {
          "internalType": "address payable",
          "name": "account",
          "type": "address"
        },
        {
          "internalType": "uint96",
          "name": "value",
          "type": "uint96"
        }
      ],
      "stateMutability": "view",
      "type": "function",
      "constant": true
    },
    {
      "inputs": [
        {
          "internalType": "address",
          "name": "from",
          "type": "address"
        },
        {
          "internalType": "address",
          "name": "to",
          "type": "address"
        },
        {
          "internalType": "uint256",
          "name": "tokenId",
          "type": "uint256"
        }
      ],
      "name": "safeTransferFrom",
      "outputs": [],
      "stateMutability": "nonpayable",
      "type": "function"
    },
    {
      "inputs": [
        {
          "internalType": "address",
          "name": "from",
          "type": "address"
        },
        {
          "internalType": "address",
          "name": "to",
          "type": "address"
        },
        {
          "internalType": "uint256",
          "name": "tokenId",
          "type": "uint256"
        },
        {
          "internalType": "bytes",
          "name": "_data",
          "type": "bytes"
        }
      ],
      "name": "safeTransferFrom",
      "outputs": [],
      "stateMutability": "nonpayable",
      "type": "function"
    },
    {
      "inputs": [
        {
          "internalType": "address",
          "name": "operator",
          "type": "address"
        },
        {
          "internalType": "bool",
          "name": "approved",
          "type": "bool"
        }
      ],
      "name": "setApprovalForAll",
      "outputs": [],
      "stateMutability": "nonpayable",
      "type": "function"
    },
    {
      "inputs": [],
      "name": "symbol",
      "outputs": [
        {
          "internalType": "string",
          "name": "",
          "type": "string"
        }
      ],
      "stateMutability": "view",
      "type": "function",
      "constant": true
    },
    {
      "inputs": [
        {
          "internalType": "uint256",
          "name": "tokenId",
          "type": "uint256"
        }
      ],
      "name": "tokenURI",
      "outputs": [
        {
          "internalType": "string",
          "name": "",
          "type": "string"
        }
      ],
      "stateMutability": "view",
      "type": "function",
      "constant": true
    },
    {
      "inputs": [],
      "name": "totalSupply",
      "outputs": [
        {
          "internalType": "uint256",
          "name": "",
          "type": "uint256"
        }
      ],
      "stateMutability": "view",
      "type": "function",
      "constant": true
    },
    {
      "inputs": [
        {
          "internalType": "address",
          "name": "from",
          "type": "address"
        },
        {
          "internalType": "address",
          "name": "to",
          "type": "address"
        },
        {
          "internalType": "uint256",
          "name": "tokenId",
          "type": "uint256"
        }
      ],
      "name": "transferFrom",
      "outputs": [],
      "stateMutability": "nonpayable",
      "type": "function"
    },
    {
      "inputs": [
        {
          "internalType": "address",
          "name": "newOwner",
          "type": "address"
        }
      ],
      "name": "transferOwnership",
      "outputs": [],
      "stateMutability": "nonpayable",
      "type": "function"
    },
    {
      "inputs": [
        {
          "internalType": "address",
          "name": "_receiver",
          "type": "address"
        },
        {
          "internalType": "uint96",
          "name": "_royaltyFeesInBips",
          "type": "uint96"
        }
      ],
      "name": "setRoyaltyInfo",
      "outputs": [],
      "stateMutability": "nonpayable",
      "type": "function"
    },
    {
      "inputs": [
        {
          "internalType": "string",
          "name": "_contractURI",
          "type": "string"
        }
      ],
      "name": "setContractURI",
      "outputs": [],
      "stateMutability": "nonpayable",
      "type": "function"
    },
    {
      "inputs": [
        {
          "internalType": "bytes4",
          "name": "interfaceId",
          "type": "bytes4"
        }
      ],
      "name": "supportsInterface",
      "outputs": [
        {
          "internalType": "bool",
          "name": "",
          "type": "bool"
        }
      ],
      "stateMutability": "view",
      "type": "function",
      "constant": true
    },
    {
      "inputs": [],
      "name": "raribleConfig",
      "outputs": [],
      "stateMutability": "nonpayable",
      "type": "function"
    },
    {
      "inputs": [
        {
          "internalType": "uint256",
          "name": "_tokenId",
          "type": "uint256"
        },
        {
          "internalType": "uint256",
          "name": "_salePrice",
          "type": "uint256"
        }
      ],
      "name": "royaltyInfo",
      "outputs": [
        {
          "internalType": "address",
          "name": "",
          "type": "address"
        },
        {
          "internalType": "uint256",
          "name": "",
          "type": "uint256"
        }
      ],
      "stateMutability": "view",
      "type": "function",
      "constant": true
    },
    {
      "inputs": [
        {
          "internalType": "uint256",
          "name": "_salePrice",
          "type": "uint256"
        }
      ],
      "name": "calculateRoyalty",
      "outputs": [
        {
          "internalType": "uint256",
          "name": "",
          "type": "uint256"
        }
      ],
      "stateMutability": "view",
      "type": "function",
      "constant": true
    },
    {
      "inputs": [
        {
          "internalType": "uint256",
          "name": "_price",
          "type": "uint256"
        }
      ],
      "name": "setPrice",
      "outputs": [],
      "stateMutability": "nonpayable",
      "type": "function"
    },
    {
      "inputs": [],
      "name": "changePhase",
      "outputs": [],
      "stateMutability": "nonpayable",
      "type": "function"
    },
    {
      "inputs": [],
      "name": "whitelistPhase",
      "outputs": [],
      "stateMutability": "nonpayable",
      "type": "function"
    },
    {
      "inputs": [],
      "name": "mintAll",
      "outputs": [],
      "stateMutability": "nonpayable",
      "type": "function"
    },
    {
      "inputs": [],
      "name": "mint",
      "outputs": [],
      "stateMutability": "payable",
      "type": "function",
      "payable": true
    },
    {
      "inputs": [
        {
          "internalType": "uint256",
          "name": "tokenId",
          "type": "uint256"
        }
      ],
      "name": "burn",
      "outputs": [],
      "stateMutability": "nonpayable",
      "type": "function"
    },
    {
      "inputs": [],
      "name": "withdrawMatic",
      "outputs": [],
      "stateMutability": "payable",
      "type": "function",
      "payable": true
    },
    {
      "inputs": [
        {
          "internalType": "uint256",
          "name": "_tokenId",
          "type": "uint256"
        }
      ],
      "name": "getTokenOwner",
      "outputs": [
        {
          "internalType": "address",
          "name": "",
          "type": "address"
        }
      ],
      "stateMutability": "view",
      "type": "function",
      "constant": true
    },
    {
      "inputs": [
        {
          "internalType": "uint256",
          "name": "_tokenId",
          "type": "uint256"
        }
      ],
      "name": "getTokenMetaData",
      "outputs": [
        {
          "internalType": "string",
          "name": "",
          "type": "string"
        }
      ],
      "stateMutability": "view",
      "type": "function",
      "constant": true
    },
    {
      "inputs": [],
      "name": "getNumberOfTokensMinted",
      "outputs": [
        {
          "internalType": "uint256",
          "name": "",
          "type": "uint256"
        }
      ],
      "stateMutability": "view",
      "type": "function",
      "constant": true
    },
    {
      "inputs": [
        {
          "internalType": "address",
          "name": "_owner",
          "type": "address"
        }
      ],
      "name": "getTotalNumberOfTokensOwnedByAnAddress",
      "outputs": [
        {
          "internalType": "uint256",
          "name": "",
          "type": "uint256"
        }
      ],
      "stateMutability": "view",
      "type": "function",
      "constant": true
    },
    {
      "inputs": [
        {
          "internalType": "uint256",
          "name": "_tokenId",
          "type": "uint256"
        }
      ],
      "name": "getTokenExists",
      "outputs": [
        {
          "internalType": "bool",
          "name": "",
          "type": "bool"
        }
      ],
      "stateMutability": "view",
      "type": "function",
      "constant": true
    },
    {
      "inputs": [
        {
          "internalType": "address",
          "name": "user",
          "type": "address"
        }
      ],
      "name": "whitelistAddress",
      "outputs": [],
      "stateMutability": "nonpayable",
      "type": "function"
    },
    {
      "inputs": [
        {
          "internalType": "address",
          "name": "user",
          "type": "address"
        }
      ],
      "name": "delistAddress",
      "outputs": [],
      "stateMutability": "nonpayable",
      "type": "function"
    }
  ],
  "bytecode": "0x60a0604052723ef6ad3b1eff56ea487e1561ab3243a73a4b14601060006101000a81548173ffffffffffffffffffffffffffffffffffffffff021916908373ffffffffffffffffffffffffffffffffffffffff1602179055507324d6496dc5913cd1f7f3742760414192adb7136b601160006101000a81548173ffffffffffffffffffffffffffffffffffffffff021916908373ffffffffffffffffffffffffffffffffffffffff1602179055506001601355603260145560016015556001601660006101000a81548160ff021916908315150217905550678ac7230489e8000060175560fa601855348015620000f557600080fd5b50604051620059353803806200593583398181016040528101906200011b9190620005d8565b6040518060400160405280600f81526020017f4c75636b426c6f636b734e6f64657300000000000000000000000000000000008152506040518060400160405280600381526020017f4c424e000000000000000000000000000000000000000000000000000000000081525060fa620001a16301ffc9a760e01b620002c260201b60201c565b8260019080519060200190620001b992919062000499565b508160029080519060200190620001d292919062000499565b5080608081815250508060078190555050505062000205620001f9620003cb60201b60201c565b620003d360201b60201c565b6001600c8190555081600f60006101000a8154816bffffffffffffffffffffffff02191690836bffffffffffffffffffffffff160217905550601160009054906101000a900473ffffffffffffffffffffffffffffffffffffffff16600f600c6101000a81548173ffffffffffffffffffffffffffffffffffffffff021916908373ffffffffffffffffffffffffffffffffffffffff16021790555080600e9080519060200190620002b992919062000499565b50505062000703565b63ffffffff60e01b817bffffffffffffffffffffffffffffffffffffffffffffffffffffffff191614156200035f576040517f08c379a000000000000000000000000000000000000000000000000000000000815260040180806020018281038252601c8152602001807f4552433136353a20696e76616c696420696e746572666163652069640000000081525060200191505060405180910390fd5b6001600080837bffffffffffffffffffffffffffffffffffffffffffffffffffffffff19167bffffffffffffffffffffffffffffffffffffffffffffffffffffffff1916815260200190815260200160002060006101000a81548160ff02191690831515021790555050565b600033905090565b6000600b60009054906101000a900473ffffffffffffffffffffffffffffffffffffffff16905081600b60006101000a81548173ffffffffffffffffffffffffffffffffffffffff021916908373ffffffffffffffffffffffffffffffffffffffff1602179055508173ffffffffffffffffffffffffffffffffffffffff168173ffffffffffffffffffffffffffffffffffffffff167f8be0079c531659141344cd1fd0a4f28419497f9722a3daafe3b4186f6b6457e060405160405180910390a35050565b828054600181600116156101000203166002900490600052602060002090601f016020900481019282620004d157600085556200051d565b82601f10620004ec57805160ff19168380011785556200051d565b828001600101855582156200051d579182015b828111156200051c578251825591602001919060010190620004ff565b5b5090506200052c919062000530565b5090565b5b808211156200054b57600081600090555060010162000531565b5090565b600062000566620005608462000666565b62000632565b9050828152602081018484840111156200057f57600080fd5b6200058c848285620006b1565b509392505050565b600082601f830112620005a657600080fd5b8151620005b88482602086016200054f565b91505092915050565b600081519050620005d281620006e9565b92915050565b60008060408385031215620005ec57600080fd5b6000620005fc85828601620005c1565b925050602083015167ffffffffffffffff8111156200061a57600080fd5b620006288582860162000594565b9150509250929050565b6000604051905081810181811067ffffffffffffffff821117156200065c576200065b620006e7565b5b8060405250919050565b600067ffffffffffffffff821115620006845762000683620006e7565b5b601f19601f8301169050602081019050919050565b60006bffffffffffffffffffffffff82169050919050565b60005b83811015620006d1578082015181840152602081019050620006b4565b83811115620006e1576000848401525b50505050565bfe5b620006f48162000699565b81146200070057600080fd5b50565b608051615212620007236000398061134a52806122dc52506152126000f3fe60806040526004361061027d5760003560e01c8063810074c61161014f578063a5cd761f116100c1578063cc151f3a1161007a578063cc151f3a14610990578063d5abeb01146109bb578063db6f5953146109e6578063e8a3d485146109fd578063e985e9c514610a28578063f2fde38b14610a655761027d565b8063a5cd761f1461085a578063b88d4fde14610897578063ba7d2c76146108c0578063babd7012146108eb578063c87b56dd14610916578063cad96cca146109535761027d565b8063938e3d7b11610113578063938e3d7b1461074a57806395d89b41146107735780639ed400271461079e578063a035b1fe146107c9578063a22cb465146107f4578063a2e696131461081d5761027d565b8063810074c614610697578063815d544c146106a15780638924af74146106b85780638da5cb5b146106f657806391b7f5ed146107215761027d565b80632a55205a116101f3578063595882b3116101ac578063595882b3146105895780635a34508b146105a05780636352211e146105c957806367c623cf1461060657806370a0823114610643578063715018a6146106805761027d565b80632a55205a1461047c578063381116b6146104ba57806341566585146104d157806342842e0e146104fa57806342966c6814610523578063439028501461054c5761027d565b8063095ea7b311610245578063095ea7b31461037b5780631249c58b146103a4578063142687f3146103ae57806318160ddd146103eb57806318cae2691461041657806323b872dd146104535761027d565b806301ffc9a71461028257806302fa7c47146102bf578063055ad42e146102e857806306fdde0314610313578063081812fc1461033e575b600080fd5b34801561028e57600080fd5b506102a960048036038101906102a4919061441a565b610a8e565b6040516102b69190614b0a565b60405180910390f35b3480156102cb57600080fd5b506102e660048036038101906102e191906143b5565b610b2e565b005b3480156102f457600080fd5b506102fd610c20565b60405161030a9190614c87565b60405180910390f35b34801561031f57600080fd5b50610328610c26565b6040516103359190614b25565b60405180910390f35b34801561034a57600080fd5b5061036560048036038101906103609190614488565b610cc8565b60405161037291906149d7565b60405180910390f35b34801561038757600080fd5b506103a2600480360381019061039d9190614379565b610d63565b005b6103ac610ea7565b005b3480156103ba57600080fd5b506103d560048036038101906103d09190614488565b61132c565b6040516103e29190614b0a565b60405180910390f35b3480156103f757600080fd5b50610400611343565b60405161040d9190614c87565b60405180910390f35b34801561042257600080fd5b5061043d6004803603810190610438919061420e565b61136f565b60405161044a9190614c87565b60405180910390f35b34801561045f57600080fd5b5061047a60048036038101906104759190614273565b611387565b005b34801561048857600080fd5b506104a3600480360381019061049e91906144da565b6113fd565b6040516104b1929190614abf565b60405180910390f35b3480156104c657600080fd5b506104cf611437565b005b3480156104dd57600080fd5b506104f860048036038101906104f3919061420e565b6114e4565b005b34801561050657600080fd5b50610521600480360381019061051c9190614273565b6115bb565b005b34801561052f57600080fd5b5061054a60048036038101906105459190614488565b6115db565b005b34801561055857600080fd5b50610573600480360381019061056e919061420e565b611863565b6040516105809190614c87565b60405180910390f35b34801561059557600080fd5b5061059e61187a565b005b3480156105ac57600080fd5b506105c760048036038101906105c2919061420e565b6118dd565b005b3480156105d557600080fd5b506105f060048036038101906105eb9190614488565b6119b4565b6040516105fd91906149d7565b60405180910390f35b34801561061257600080fd5b5061062d60048036038101906106289190614488565b6119eb565b60405161063a9190614b25565b60405180910390f35b34801561064f57600080fd5b5061066a6004803603810190610665919061420e565b611a03565b6040516106779190614c87565b60405180910390f35b34801561068c57600080fd5b50610695611ad8565b005b61069f611b60565b005b3480156106ad57600080fd5b506106b6611c3e565b005b3480156106c457600080fd5b506106df60048036038101906106da91906144da565b611d14565b6040516106ed929190614a6d565b60405180910390f35b34801561070257600080fd5b5061070b611d89565b60405161071891906149d7565b60405180910390f35b34801561072d57600080fd5b5061074860048036038101906107439190614488565b611db3565b005b34801561075657600080fd5b50610771600480360381019061076c9190614443565b611e39565b005b34801561077f57600080fd5b50610788611ecb565b6040516107959190614b25565b60405180910390f35b3480156107aa57600080fd5b506107b3611f6d565b6040516107c09190614c87565b60405180910390f35b3480156107d557600080fd5b506107de611f73565b6040516107eb9190614c87565b60405180910390f35b34801561080057600080fd5b5061081b6004803603810190610816919061433d565b611f79565b005b34801561082957600080fd5b50610844600480360381019061083f9190614488565b611f8f565b6040516108519190614c87565b60405180910390f35b34801561086657600080fd5b50610881600480360381019061087c9190614488565b611fce565b60405161088e91906149d7565b60405180910390f35b3480156108a357600080fd5b506108be60048036038101906108b991906142c2565b611fe5565b005b3480156108cc57600080fd5b506108d561205d565b6040516108e29190614c87565b60405180910390f35b3480156108f757600080fd5b50610900612063565b60405161090d9190614c87565b60405180910390f35b34801561092257600080fd5b5061093d60048036038101906109389190614488565b612069565b60405161094a9190614b25565b60405180910390f35b34801561095f57600080fd5b5061097a60048036038101906109759190614488565b6121c2565b6040516109879190614ae8565b60405180910390f35b34801561099c57600080fd5b506109a56122c4565b6040516109b29190614c87565b60405180910390f35b3480156109c757600080fd5b506109d06122d8565b6040516109dd9190614c87565b60405180910390f35b3480156109f257600080fd5b506109fb612300565b005b348015610a0957600080fd5b50610a12612397565b604051610a1f9190614b25565b60405180910390f35b348015610a3457600080fd5b50610a4f6004803603810190610a4a9190614237565b612435565b604051610a5c9190614b0a565b60405180910390f35b348015610a7157600080fd5b50610a8c6004803603810190610a87919061420e565b6124c9565b005b600063cad96cca60e01b7bffffffffffffffffffffffffffffffffffffffffffffffffffffffff1916827bffffffffffffffffffffffffffffffffffffffffffffffffffffffff19161415610ae65760019050610b29565b632a55205a60e01b827bffffffffffffffffffffffffffffffffffffffffffffffffffffffff19161415610b1d5760019050610b29565b610b26826125c1565b90505b919050565b610b36612693565b73ffffffffffffffffffffffffffffffffffffffff16610b54611d89565b73ffffffffffffffffffffffffffffffffffffffff1614610baa576040517f08c379a0000000000000000000000000000000000000000000000000000000008152600401610ba190614ba7565b60405180910390fd5b81600f600c6101000a81548173ffffffffffffffffffffffffffffffffffffffff021916908373ffffffffffffffffffffffffffffffffffffffff16021790555080600f60006101000a8154816bffffffffffffffffffffffff02191690836bffffffffffffffffffffffff1602179055505050565b60155481565b606060018054600181600116156101000203166002900480601f016020809104026020016040519081016040528092919081815260200182805460018160011615610100020316600290048015610cbe5780601f10610c9357610100808354040283529160200191610cbe565b820191906000526020600020905b815481529060010190602001808311610ca157829003601f168201915b5050505050905090565b6000610cd38261269b565b610d28576040517f08c379a000000000000000000000000000000000000000000000000000000000815260040180806020018281038252602c8152602001806150df602c913960400191505060405180910390fd5b6009600083815260200190815260200160002060009054906101000a900473ffffffffffffffffffffffffffffffffffffffff169050919050565b6000610d6e826119b4565b90508073ffffffffffffffffffffffffffffffffffffffff168373ffffffffffffffffffffffffffffffffffffffff161415610df5576040517f08c379a00000000000000000000000000000000000000000000000000000000081526004018080602001828103825260218152602001806151636021913960400191505060405180910390fd5b8073ffffffffffffffffffffffffffffffffffffffff16610e14612693565b73ffffffffffffffffffffffffffffffffffffffff161480610e435750610e4281610e3d612693565b612435565b5b610e98576040517f08c379a0000000000000000000000000000000000000000000000000000000008152600401808060200182810382526038815260200180614fdd6038913960400191505060405180910390fd5b610ea283836126b8565b505050565b6002600c541415610eed576040517f08c379a0000000000000000000000000000000000000000000000000000000008152600401610ee490614c07565b60405180910390fd5b6002600c81905550678ac7230489e80000601060009054906101000a900473ffffffffffffffffffffffffffffffffffffffff1673ffffffffffffffffffffffffffffffffffffffff166370a08231336040518263ffffffff1660e01b8152600401610f5991906149f2565b60206040518083038186803b158015610f7157600080fd5b505afa158015610f85573d6000803e3d6000fd5b505050506040513d601f19601f82011682018060405250810190610fa991906144b1565b1015610fea576040517f08c379a0000000000000000000000000000000000000000000000000000000008152600401610fe190614be7565b60405180910390fd5b60006014541161102f576040517f08c379a000000000000000000000000000000000000000000000000000000000815260040161102690614c47565b60405180910390fd5b60011515601660009054906101000a900460ff16151514156110dc57601260003373ffffffffffffffffffffffffffffffffffffffff1673ffffffffffffffffffffffffffffffffffffffff16815260200190815260200160002060009054906101000a900460ff166110d7576040517f08c379a00000000000000000000000000000000000000000000000000000000081526004016110ce90614c67565b60405180910390fd5b611122565b601754341015611121576040517f08c379a000000000000000000000000000000000000000000000000000000000815260040161111890614bc7565b60405180910390fd5b5b600260155410611206576000601960003373ffffffffffffffffffffffffffffffffffffffff1673ffffffffffffffffffffffffffffffffffffffff1681526020019081526020016000205490506013548111156111b5576040517f08c379a00000000000000000000000000000000000000000000000000000000081526004016111ac90614b87565b60405180910390fd5b601960003373ffffffffffffffffffffffffffffffffffffffff1673ffffffffffffffffffffffffffffffffffffffff16815260200190815260200160002060008154809291906001019190505550505b601060009054906101000a900473ffffffffffffffffffffffffffffffffffffffff1673ffffffffffffffffffffffffffffffffffffffff166323b872dd3330678ac7230489e800006040518463ffffffff1660e01b815260040161126d93929190614a0d565b602060405180830381600087803b15801561128757600080fd5b505af115801561129b573d6000803e3d6000fd5b505050506040513d601f19601f820116820180604052508101906112bf91906143f1565b506112cb336001612771565b60146000815460019003919050819055503373ffffffffffffffffffffffffffffffffffffffff166014547f769eff512f395b679667e0062a0e31dad5d22dbc7e6b87f16c3de7e85e66346060405160405180910390a36001600c81905550565b6000806113388361269b565b905080915050919050565b60006007547f000000000000000000000000000000000000000000000000000000000000000003905090565b60196020528060005260406000206000915090505481565b611398611392612693565b82612a28565b6113ed576040517f08c379a00000000000000000000000000000000000000000000000000000000081526004018080602001828103825260318152602001806151ac6031913960400191505060405180910390fd5b6113f8838383612b1c565b505050565b600080600f600c9054906101000a900473ffffffffffffffffffffffffffffffffffffffff1661142c84611f8f565b915091509250929050565b61143f612693565b73ffffffffffffffffffffffffffffffffffffffff1661145d611d89565b73ffffffffffffffffffffffffffffffffffffffff16146114b3576040517f08c379a00000000000000000000000000000000000000000000000000000000081526004016114aa90614ba7565b60405180910390fd5b600060fa90505b60008111156114e1576114d360018203336103e8612d54565b8080600190039150506114ba565b50565b6114ec612693565b73ffffffffffffffffffffffffffffffffffffffff1661150a611d89565b73ffffffffffffffffffffffffffffffffffffffff1614611560576040517f08c379a000000000000000000000000000000000000000000000000000000000815260040161155790614ba7565b60405180910390fd5b6001601260008373ffffffffffffffffffffffffffffffffffffffff1673ffffffffffffffffffffffffffffffffffffffff16815260200190815260200160002060006101000a81548160ff02191690831515021790555050565b6115d683838360405180602001604052806000815250611fe5565b505050565b6115ec6115e6612693565b82612a28565b61162b576040517f08c379a000000000000000000000000000000000000000000000000000000000815260040161162290614c27565b60405180910390fd5b603260185411611670576040517f08c379a000000000000000000000000000000000000000000000000000000000815260040161166790614b67565b60405180910390fd5b601060009054906101000a900473ffffffffffffffffffffffffffffffffffffffff1673ffffffffffffffffffffffffffffffffffffffff1663a9059cbb33676124fee993bc00006040518363ffffffff1660e01b81526004016116d5929190614a44565b602060405180830381600087803b1580156116ef57600080fd5b505af1158015611703573d6000803e3d6000fd5b505050506040513d601f19601f8201168201806040525081019061172791906143f1565b50601060009054906101000a900473ffffffffffffffffffffffffffffffffffffffff1673ffffffffffffffffffffffffffffffffffffffff1663a9059cbb601160009054906101000a900473ffffffffffffffffffffffffffffffffffffffff166729a2241af62c00006040518363ffffffff1660e01b81526004016117af929190614a96565b602060405180830381600087803b1580156117c957600080fd5b505af11580156117dd573d6000803e3d6000fd5b505050506040513d601f19601f8201168201806040525081019061180191906143f1565b50601860008154600190039190508190555061181c81612e43565b3373ffffffffffffffffffffffffffffffffffffffff16817f49d495860fec73fbe6e7c300aaaae55330c5e35cea66e38a2de0988d4b06a49660405160405180910390a350565b60008061186f83611a03565b905080915050919050565b6002600c5414156118c0576040517f08c379a00000000000000000000000000000000000000000000000000000000081526004016118b790614c07565b60405180910390fd5b6002600c819055506118d33360fa612771565b6001600c81905550565b6118e5612693565b73ffffffffffffffffffffffffffffffffffffffff16611903611d89565b73ffffffffffffffffffffffffffffffffffffffff1614611959576040517f08c379a000000000000000000000000000000000000000000000000000000000815260040161195090614ba7565b60405180910390fd5b6000601260008373ffffffffffffffffffffffffffffffffffffffff1673ffffffffffffffffffffffffffffffffffffffff16815260200190815260200160002060006101000a81548160ff02191690831515021790555050565b60006119e48260405180606001604052806029815260200161508b602991396004612f229092919063ffffffff16565b9050919050565b606060006119f883612069565b905080915050919050565b60008073ffffffffffffffffffffffffffffffffffffffff168273ffffffffffffffffffffffffffffffffffffffff161415611a8a576040517f08c379a000000000000000000000000000000000000000000000000000000000815260040180806020018281038252602a815260200180615061602a913960400191505060405180910390fd5b611ad1600360008473ffffffffffffffffffffffffffffffffffffffff1673ffffffffffffffffffffffffffffffffffffffff168152602001908152602001600020612f41565b9050919050565b611ae0612693565b73ffffffffffffffffffffffffffffffffffffffff16611afe611d89565b73ffffffffffffffffffffffffffffffffffffffff1614611b54576040517f08c379a0000000000000000000000000000000000000000000000000000000008152600401611b4b90614ba7565b60405180910390fd5b611b5e6000612f56565b565b611b68612693565b73ffffffffffffffffffffffffffffffffffffffff16611b86611d89565b73ffffffffffffffffffffffffffffffffffffffff1614611bdc576040517f08c379a0000000000000000000000000000000000000000000000000000000008152600401611bd390614ba7565b60405180910390fd5b601160009054906101000a900473ffffffffffffffffffffffffffffffffffffffff1673ffffffffffffffffffffffffffffffffffffffff166108fc479081150290604051600060405180830381858888f19350505050611c3c57600080fd5b565b611c46612693565b73ffffffffffffffffffffffffffffffffffffffff16611c64611d89565b73ffffffffffffffffffffffffffffffffffffffff1614611cba576040517f08c379a0000000000000000000000000000000000000000000000000000000008152600401611cb190614ba7565b60405180910390fd5b60011515601660009054906101000a900460ff1615151415611cf6576000601660006101000a81548160ff021916908315150217905550611d12565b6001601660006101000a81548160ff0219169083151502179055505b565b600d6020528160005260406000208181548110611d3057600080fd5b90600052602060002001600091509150508060000160009054906101000a900473ffffffffffffffffffffffffffffffffffffffff16908060000160149054906101000a90046bffffffffffffffffffffffff16905082565b6000600b60009054906101000a900473ffffffffffffffffffffffffffffffffffffffff16905090565b611dbb612693565b73ffffffffffffffffffffffffffffffffffffffff16611dd9611d89565b73ffffffffffffffffffffffffffffffffffffffff1614611e2f576040517f08c379a0000000000000000000000000000000000000000000000000000000008152600401611e2690614ba7565b60405180910390fd5b8060178190555050565b611e41612693565b73ffffffffffffffffffffffffffffffffffffffff16611e5f611d89565b73ffffffffffffffffffffffffffffffffffffffff1614611eb5576040517f08c379a0000000000000000000000000000000000000000000000000000000008152600401611eac90614ba7565b60405180910390fd5b8181600e9190611ec6929190613fe0565b505050565b606060028054600181600116156101000203166002900480601f016020809104026020016040519081016040528092919081815260200182805460018160011615610100020316600290048015611f635780601f10611f3857610100808354040283529160200191611f63565b820191906000526020600020905b815481529060010190602001808311611f4657829003601f168201915b5050505050905090565b60145481565b60175481565b611f8b611f84612693565b838361301c565b5050565b6000600f60009054906101000a90046bffffffffffffffffffffffff166bffffffffffffffffffffffff166127108381611fc557fe5b04029050919050565b600080611fda836119b4565b905080915050919050565b611ff6611ff0612693565b83612a28565b61204b576040517f08c379a00000000000000000000000000000000000000000000000000000000081526004018080602001828103825260318152602001806151ac6031913960400191505060405180910390fd5b612057848484846131be565b50505050565b60135481565b60185481565b60606120748261269b565b6120c9576040517f08c379a000000000000000000000000000000000000000000000000000000000815260040180806020018281038252602f815260200180615134602f913960400191505060405180910390fd5b60006120d3613230565b905060008151116120f357604051806020016040528060008152506121ba565b806120fd84613250565b6040516020018083805190602001908083835b602083106121335780518252602082019150602081019050602083039250612110565b6001836020036101000a03801982511681845116808217855250505050505090500182805190602001908083835b602083106121845780518252602082019150602081019050602083039250612161565b6001836020036101000a038019825116818451168082178552505050505050905001925050506040516020818303038152906040525b915050919050565b6060600d6000838152602001908152602001600020805480602002602001604051908101604052809291908181526020016000905b828210156122b9578382906000526020600020016040518060400160405290816000820160009054906101000a900473ffffffffffffffffffffffffffffffffffffffff1673ffffffffffffffffffffffffffffffffffffffff1673ffffffffffffffffffffffffffffffffffffffff1681526020016000820160149054906101000a90046bffffffffffffffffffffffff166bffffffffffffffffffffffff166bffffffffffffffffffffffff1681525050815260200190600101906121f7565b505050509050919050565b6000806122cf611343565b90508091505090565b60007f0000000000000000000000000000000000000000000000000000000000000000905090565b612308612693565b73ffffffffffffffffffffffffffffffffffffffff16612326611d89565b73ffffffffffffffffffffffffffffffffffffffff161461237c576040517f08c379a000000000000000000000000000000000000000000000000000000000815260040161237390614ba7565b60405180910390fd5b60016015600082825401925050819055506032601481905550565b600e8054600181600116156101000203166002900480601f01602080910402602001604051908101604052809291908181526020018280546001816001161561010002031660029004801561242d5780601f106124025761010080835404028352916020019161242d565b820191906000526020600020905b81548152906001019060200180831161241057829003601f168201915b505050505081565b6000600a60008473ffffffffffffffffffffffffffffffffffffffff1673ffffffffffffffffffffffffffffffffffffffff16815260200190815260200160002060008373ffffffffffffffffffffffffffffffffffffffff1673ffffffffffffffffffffffffffffffffffffffff16815260200190815260200160002060009054906101000a900460ff16905092915050565b6124d1612693565b73ffffffffffffffffffffffffffffffffffffffff166124ef611d89565b73ffffffffffffffffffffffffffffffffffffffff1614612545576040517f08c379a000000000000000000000000000000000000000000000000000000000815260040161253c90614ba7565b60405180910390fd5b600073ffffffffffffffffffffffffffffffffffffffff168173ffffffffffffffffffffffffffffffffffffffff1614156125b5576040517f08c379a00000000000000000000000000000000000000000000000000000000081526004016125ac90614b47565b60405180910390fd5b6125be81612f56565b50565b60007f80ac58cd000000000000000000000000000000000000000000000000000000007bffffffffffffffffffffffffffffffffffffffffffffffffffffffff1916827bffffffffffffffffffffffffffffffffffffffffffffffffffffffff1916148061268c57507f5b5e139f000000000000000000000000000000000000000000000000000000007bffffffffffffffffffffffffffffffffffffffffffffffffffffffff1916827bffffffffffffffffffffffffffffffffffffffffffffffffffffffff1916145b9050919050565b600033905090565b60006126b182600461339790919063ffffffff16565b9050919050565b816009600083815260200190815260200160002060006101000a81548173ffffffffffffffffffffffffffffffffffffffff021916908373ffffffffffffffffffffffffffffffffffffffff160217905550808273ffffffffffffffffffffffffffffffffffffffff1661272b836119b4565b73ffffffffffffffffffffffffffffffffffffffff167f8c5be1e5ebec7d5bd14f71427d1e84f3dd0314c0f7b2291e5b200ac8c7c3b92560405160405180910390a45050565b3273ffffffffffffffffffffffffffffffffffffffff16612790612693565b73ffffffffffffffffffffffffffffffffffffffff1614612819576040517f08c379a00000000000000000000000000000000000000000000000000000000081526004018080602001828103825260158152602001807f436f6e7472616374732063616e6e6f74206d696e74000000000000000000000081525060200191505060405180910390fd5b600073ffffffffffffffffffffffffffffffffffffffff168273ffffffffffffffffffffffffffffffffffffffff1614156128bc576040517f08c379a00000000000000000000000000000000000000000000000000000000081526004018080602001828103825260208152602001807f4552433732313a206d696e7420746f20746865207a65726f206164647265737381525060200191505060405180910390fd5b60008111612915576040517f08c379a00000000000000000000000000000000000000000000000000000000081526004018080602001828103825260288152602001806151846028913960400191505060405180910390fd5b806007541015612970576040517f08c379a000000000000000000000000000000000000000000000000000000000815260040180806020018281038252602b8152602001806150b4602b913960400191505060405180910390fd5b600080600754905060005b838110156129b15761298d85836133b1565b925060018301925061299f858461346a565b8160019003915080600101905061297b565b5080600781905550612a0a82600360008773ffffffffffffffffffffffffffffffffffffffff1673ffffffffffffffffffffffffffffffffffffffff16815260200190815260200160002061351c90919063ffffffff16565b50612a21828560046135369092919063ffffffff16565b5050505050565b6000612a338261269b565b612a88576040517f08c379a000000000000000000000000000000000000000000000000000000000815260040180806020018281038252602c815260200180614fb1602c913960400191505060405180910390fd5b6000612a93836119b4565b90508073ffffffffffffffffffffffffffffffffffffffff168473ffffffffffffffffffffffffffffffffffffffff161480612b0257508373ffffffffffffffffffffffffffffffffffffffff16612aea84610cc8565b73ffffffffffffffffffffffffffffffffffffffff16145b80612b135750612b128185612435565b5b91505092915050565b8273ffffffffffffffffffffffffffffffffffffffff16612b3c826119b4565b73ffffffffffffffffffffffffffffffffffffffff1614612ba8576040517f08c379a000000000000000000000000000000000000000000000000000000000815260040180806020018281038252602981526020018061510b6029913960400191505060405180910390fd5b600073ffffffffffffffffffffffffffffffffffffffff168273ffffffffffffffffffffffffffffffffffffffff161415612c2e576040517f08c379a0000000000000000000000000000000000000000000000000000000008152600401808060200182810382526024815260200180614f8d6024913960400191505060405180910390fd5b612c396000826126b8565b612c8a81600360008673ffffffffffffffffffffffffffffffffffffffff1673ffffffffffffffffffffffffffffffffffffffff16815260200190815260200160002061356b90919063ffffffff16565b50612cdc81600360008573ffffffffffffffffffffffffffffffffffffffff1673ffffffffffffffffffffffffffffffffffffffff16815260200190815260200160002061351c90919063ffffffff16565b50612cf3818360046135369092919063ffffffff16565b50808273ffffffffffffffffffffffffffffffffffffffff168473ffffffffffffffffffffffffffffffffffffffff167fddf252ad1be2c89b69c2b068fc378daa952ba7f163c4a11628f55a4df523b3ef60405160405180910390a4505050565b6000600167ffffffffffffffff81118015612d6e57600080fd5b50604051908082528060200260200182016040528015612da857816020015b612d9561406e565b815260200190600190039081612d8d5790505b5090508181600081518110612db957fe5b6020026020010151602001906bffffffffffffffffffffffff1690816bffffffffffffffffffffffff16815250508281600081518110612df557fe5b60200260200101516000019073ffffffffffffffffffffffffffffffffffffffff16908173ffffffffffffffffffffffffffffffffffffffff1681525050612e3d8482613585565b50505050565b6000612e4e826119b4565b9050612e5b6000836126b8565b612eac82600360008473ffffffffffffffffffffffffffffffffffffffff1673ffffffffffffffffffffffffffffffffffffffff16815260200190815260200160002061356b90919063ffffffff16565b50612ec18260046137cf90919063ffffffff16565b5081600073ffffffffffffffffffffffffffffffffffffffff168273ffffffffffffffffffffffffffffffffffffffff167fddf252ad1be2c89b69c2b068fc378daa952ba7f163c4a11628f55a4df523b3ef60405160405180910390a45050565b6000612f35846000018460001b846137e9565b60001c90509392505050565b6000612f4f826000016138df565b9050919050565b6000600b60009054906101000a900473ffffffffffffffffffffffffffffffffffffffff16905081600b60006101000a81548173ffffffffffffffffffffffffffffffffffffffff021916908373ffffffffffffffffffffffffffffffffffffffff1602179055508173ffffffffffffffffffffffffffffffffffffffff168173ffffffffffffffffffffffffffffffffffffffff167f8be0079c531659141344cd1fd0a4f28419497f9722a3daafe3b4186f6b6457e060405160405180910390a35050565b8173ffffffffffffffffffffffffffffffffffffffff168373ffffffffffffffffffffffffffffffffffffffff1614156130be576040517f08c379a00000000000000000000000000000000000000000000000000000000081526004018080602001828103825260198152602001807f4552433732313a20617070726f766520746f2063616c6c65720000000000000081525060200191505060405180910390fd5b80600a60008573ffffffffffffffffffffffffffffffffffffffff1673ffffffffffffffffffffffffffffffffffffffff16815260200190815260200160002060008473ffffffffffffffffffffffffffffffffffffffff1673ffffffffffffffffffffffffffffffffffffffff16815260200190815260200160002060006101000a81548160ff0219169083151502179055508173ffffffffffffffffffffffffffffffffffffffff168373ffffffffffffffffffffffffffffffffffffffff167f17307eab39ab6107e8899845ad3d59bd9653f200f220920489ca2b5937696c318360405180821515815260200191505060405180910390a3505050565b6131c9848484612b1c565b6131d5848484846138f0565b61322a576040517f08c379a0000000000000000000000000000000000000000000000000000000008152600401808060200182810382526032815260200180614f5b6032913960400191505060405180910390fd5b50505050565b60606040518060800160405280604c8152602001615015604c9139905090565b60606000821415613298576040518060400160405280600181526020017f30000000000000000000000000000000000000000000000000000000000000008152509050613392565b600082905060005b600082146132c2578080600101915050600a82816132ba57fe5b0491506132a0565b60008167ffffffffffffffff811180156132db57600080fd5b506040519080825280601f01601f19166020018201604052801561330e5781602001600182028036833780820191505090505b50905060006001830390508593505b6000841461338a57600a848161332f57fe5b0660300160f81b8282806001900393508151811061334957fe5b60200101907effffffffffffffffffffffffffffffffffffffffffffffffffffffffffffff1916908160001a905350600a848161338257fe5b04935061331d565b819450505050505b919050565b60006133a9836000018360001b613b43565b905092915050565b600080833a43424460014303403089604051602001808973ffffffffffffffffffffffffffffffffffffffff1681526020018881526020018781526020018681526020018581526020018481526020018373ffffffffffffffffffffffffffffffffffffffff168152602001828152602001985050505050505050506040516020818303038152906040528051906020012060001c9050600083828161345357fe5b0690506134608185613b66565b9250505092915050565b816008600083815260200190815260200160002060006101000a81548173ffffffffffffffffffffffffffffffffffffffff021916908373ffffffffffffffffffffffffffffffffffffffff160217905550808273ffffffffffffffffffffffffffffffffffffffff16600073ffffffffffffffffffffffffffffffffffffffff167fddf252ad1be2c89b69c2b068fc378daa952ba7f163c4a11628f55a4df523b3ef60405160405180910390a45050565b600061352e836000018360001b613c20565b905092915050565b6000613562846000018460001b8473ffffffffffffffffffffffffffffffffffffffff1660001b613c90565b90509392505050565b600061357d836000018360001b613d6c565b905092915050565b60005b81518110156137c057600073ffffffffffffffffffffffffffffffffffffffff168282815181106135b557fe5b60200260200101516000015173ffffffffffffffffffffffffffffffffffffffff16141561364b576040517f08c379a000000000000000000000000000000000000000000000000000000000815260040180806020018281038252601b8152602001807f526563697069656e742073686f756c642062652070726573656e74000000000081525060200191505060405180910390fd5b600082828151811061365957fe5b6020026020010151602001516bffffffffffffffffffffffff1614156136e7576040517f08c379a00000000000000000000000000000000000000000000000000000000081526004018080602001828103825260208152602001807f526f79616c74792076616c75652073686f756c6420626520706f73697469766581525060200191505060405180910390fd5b600d600084815260200190815260200160002082828151811061370657fe5b60200260200101519080600181540180825580915050600190039060005260206000200160009091909190915060008201518160000160006101000a81548173ffffffffffffffffffffffffffffffffffffffff021916908373ffffffffffffffffffffffffffffffffffffffff16021790555060208201518160000160146101000a8154816bffffffffffffffffffffffff02191690836bffffffffffffffffffffffff16021790555050508080600101915050613588565b506137cb8282613e54565b5050565b60006137e1836000018360001b613e91565b905092915050565b600080846001016000858152602001908152602001600020549050600081141583906138b0576040517f08c379a00000000000000000000000000000000000000000000000000000000081526004018080602001828103825283818151815260200191508051906020019080838360005b8381101561387557808201518184015260208101905061385a565b50505050905090810190601f1680156138a25780820380516001836020036101000a031916815260200191505b509250505060405180910390fd5b508460000160018203815481106138c357fe5b9060005260206000209060020201600101549150509392505050565b600081600001805490509050919050565b60006139118473ffffffffffffffffffffffffffffffffffffffff16613faa565b15613b36578373ffffffffffffffffffffffffffffffffffffffff1663150b7a0261393a612693565b8786866040518563ffffffff1660e01b8152600401808573ffffffffffffffffffffffffffffffffffffffff1681526020018473ffffffffffffffffffffffffffffffffffffffff16815260200183815260200180602001828103825283818151815260200191508051906020019080838360005b838110156139ca5780820151818401526020810190506139af565b50505050905090810190601f1680156139f75780820380516001836020036101000a031916815260200191505b5095505050505050602060405180830381600087803b158015613a1957600080fd5b505af1925050508015613a4d57506040513d6020811015613a3957600080fd5b810190808051906020019092919050505060015b613ae6573d8060008114613a7d576040519150601f19603f3d011682016040523d82523d6000602084013e613a82565b606091505b50600081511415613ade576040517f08c379a0000000000000000000000000000000000000000000000000000000008152600401808060200182810382526032815260200180614f5b6032913960400191505060405180910390fd5b805181602001fd5b63150b7a0260e01b7bffffffffffffffffffffffffffffffffffffffffffffffffffffffff1916817bffffffffffffffffffffffffffffffffffffffffffffffffffffffff191614915050613b3b565b600190505b949350505050565b600080836001016000848152602001908152602001600020541415905092915050565b60008060066000858152602001908152602001600020549050600080821415613b9157849050613b95565b8190505b6000600185039050808614613c14576000600660008381526020019081526020016000205490506000811415613be257816006600089815260200190815260200160002081905550613c12565b80600660008981526020019081526020016000208190555060066000838152602001908152602001600020600090555b505b81935050505092915050565b6000613c2c8383613fbd565b613c85578260000182908060018154018082558091505060019003906000526020600020016000909190919091505582600001805490508360010160008481526020019081526020016000208190555060019050613c8a565b600090505b92915050565b6000808460010160008581526020019081526020016000205490506000811415613d3757846000016040518060400160405280868152602001858152509080600181540180825580915050600190039060005260206000209060020201600090919091909150600082015181600001556020820151816001015550508460000180549050856001016000868152602001908152602001600020819055506001915050613d65565b82856000016001830381548110613d4a57fe5b90600052602060002090600202016001018190555060009150505b9392505050565b60008083600101600084815260200190815260200160002054905060008114613e485760006001820390506000600186600001805490500390506000866000018281548110613db757fe5b9060005260206000200154905080876000018481548110613dd457fe5b9060005260206000200181905550600183018760010160008381526020019081526020016000208190555086600001805480613e0c57fe5b60019003818190600052602060002001600090559055866001016000878152602001908152602001600020600090556001945050505050613e4e565b60009150505b92915050565b7f3fa96d7b6bcbfe71ef171666d84db3cf52fa2d1c8afdb1cc8e486177f208b7df8282604051613e85929190614ca2565b60405180910390a15050565b60008083600101600084815260200190815260200160002054905060008114613f9e5760006001820390506000600186600001805490500390506000866000018281548110613edc57fe5b9060005260206000209060020201905080876000018481548110613efc57fe5b9060005260206000209060020201600082015481600001556001820154816001015590505060018301876001016000836000015481526020019081526020016000208190555086600001805480613f4f57fe5b6001900381819060005260206000209060020201600080820160009055600182016000905550509055866001016000878152602001908152602001600020600090556001945050505050613fa4565b60009150505b92915050565b600080823b905060008111915050919050565b600080836001016000848152602001908152602001600020541415905092915050565b828054600181600116156101000203166002900490600052602060002090601f016020900481019282614016576000855561405d565b82601f1061402f57803560ff191683800117855561405d565b8280016001018555821561405d579182015b8281111561405c578235825591602001919060010190614041565b5b50905061406a91906140ac565b5090565b6040518060400160405280600073ffffffffffffffffffffffffffffffffffffffff16815260200160006bffffffffffffffffffffffff1681525090565b5b808211156140c55760008160009055506001016140ad565b5090565b60006140dc6140d784614d03565b614cd2565b9050828152602081018484840111156140f457600080fd5b6140ff848285614e92565b509392505050565b60008135905061411681614ee7565b92915050565b60008135905061412b81614efe565b92915050565b60008151905061414081614efe565b92915050565b60008135905061415581614f15565b92915050565b600082601f83011261416c57600080fd5b813561417c8482602086016140c9565b91505092915050565b60008083601f84011261419757600080fd5b8235905067ffffffffffffffff8111156141b057600080fd5b6020830191508360018202830111156141c857600080fd5b9250929050565b6000813590506141de81614f2c565b92915050565b6000815190506141f381614f2c565b92915050565b60008135905061420881614f43565b92915050565b60006020828403121561422057600080fd5b600061422e84828501614107565b91505092915050565b6000806040838503121561424a57600080fd5b600061425885828601614107565b925050602061426985828601614107565b9150509250929050565b60008060006060848603121561428857600080fd5b600061429686828701614107565b93505060206142a786828701614107565b92505060406142b8868287016141cf565b9150509250925092565b600080600080608085870312156142d857600080fd5b60006142e687828801614107565b94505060206142f787828801614107565b9350506040614308878288016141cf565b925050606085013567ffffffffffffffff81111561432557600080fd5b6143318782880161415b565b91505092959194509250565b6000806040838503121561435057600080fd5b600061435e85828601614107565b925050602061436f8582860161411c565b9150509250929050565b6000806040838503121561438c57600080fd5b600061439a85828601614107565b92505060206143ab858286016141cf565b9150509250929050565b600080604083850312156143c857600080fd5b60006143d685828601614107565b92505060206143e7858286016141f9565b9150509250929050565b60006020828403121561440357600080fd5b600061441184828501614131565b91505092915050565b60006020828403121561442c57600080fd5b600061443a84828501614146565b91505092915050565b6000806020838503121561445657600080fd5b600083013567ffffffffffffffff81111561447057600080fd5b61447c85828601614185565b92509250509250929050565b60006020828403121561449a57600080fd5b60006144a8848285016141cf565b91505092915050565b6000602082840312156144c357600080fd5b60006144d1848285016141e4565b91505092915050565b600080604083850312156144ed57600080fd5b60006144fb858286016141cf565b925050602061450c858286016141cf565b9150509250929050565b6000614522838361497b565b60408301905092915050565b61453781614e26565b82525050565b61454681614d9a565b82525050565b61455581614d9a565b82525050565b61456481614d88565b82525050565b600061457582614d43565b61457f8185614d66565b935061458a83614d33565b8060005b838110156145bb5781516145a28882614516565b97506145ad83614d59565b92505060018101905061458e565b5085935050505092915050565b6145d181614dac565b82525050565b6145e081614e38565b82525050565b6145ef81614e4a565b82525050565b6145fe81614e5c565b82525050565b600061460f82614d4e565b6146198185614d77565b9350614629818560208601614ea1565b61463281614ed6565b840191505092915050565b600061464a602683614d77565b91507f4f776e61626c653a206e6577206f776e657220697320746865207a65726f206160008301527f64647265737300000000000000000000000000000000000000000000000000006020830152604082019050919050565b60006146b0602f83614d77565b91507f546865726527732061204d696e696d756d206f66203530204e4654732074686160008301527f74206e65656420746f20657869737400000000000000000000000000000000006020830152604082019050919050565b6000614716601c83614d77565b91507f6d6178204e4654207065722061646472657373206578636565646564000000006000830152602082019050919050565b6000614756602083614d77565b91507f4f776e61626c653a2063616c6c6572206973206e6f7420746865206f776e65726000830152602082019050919050565b6000614796601183614d77565b91507f56616c75652062656c6f772070726963650000000000000000000000000000006000830152602082019050919050565b60006147d6601583614d77565b91507f4e6f7420656e6f756768204b5253544d733a3a313000000000000000000000006000830152602082019050919050565b6000614816601f83614d77565b91507f5265656e7472616e637947756172643a207265656e7472616e742063616c6c006000830152602082019050919050565b6000614856603083614d77565b91507f4552433732314275726e61626c653a2063616c6c6572206973206e6f74206f7760008301527f6e6572206e6f7220617070726f766564000000000000000000000000000000006020830152604082019050919050565b60006148bc602383614d77565b91507f4e6f204e465420617661696c61626c65206f6e2074686174206d696e7420706860008301527f61736500000000000000000000000000000000000000000000000000000000006020830152604082019050919050565b6000614922602183614d77565b91507f596f7520617265206e6f742077686974656c697374656420666f72206d696e7460008301527f2e000000000000000000000000000000000000000000000000000000000000006020830152604082019050919050565b604082016000820151614991600085018261453d565b5060208201516149a460208501826149b9565b50505050565b6149b381614e04565b82525050565b6149c281614e0e565b82525050565b6149d181614e0e565b82525050565b60006020820190506149ec600083018461455b565b92915050565b6000602082019050614a07600083018461452e565b92915050565b6000606082019050614a22600083018661452e565b614a2f602083018561455b565b614a3c60408301846145d7565b949350505050565b6000604082019050614a59600083018561452e565b614a6660208301846145f5565b9392505050565b6000604082019050614a82600083018561454c565b614a8f60208301846149c8565b9392505050565b6000604082019050614aab600083018561455b565b614ab860208301846145e6565b9392505050565b6000604082019050614ad4600083018561455b565b614ae160208301846149aa565b9392505050565b60006020820190508181036000830152614b02818461456a565b905092915050565b6000602082019050614b1f60008301846145c8565b92915050565b60006020820190508181036000830152614b3f8184614604565b905092915050565b60006020820190508181036000830152614b608161463d565b9050919050565b60006020820190508181036000830152614b80816146a3565b9050919050565b60006020820190508181036000830152614ba081614709565b9050919050565b60006020820190508181036000830152614bc081614749565b9050919050565b60006020820190508181036000830152614be081614789565b9050919050565b60006020820190508181036000830152614c00816147c9565b9050919050565b60006020820190508181036000830152614c2081614809565b9050919050565b60006020820190508181036000830152614c4081614849565b9050919050565b60006020820190508181036000830152614c60816148af565b9050919050565b60006020820190508181036000830152614c8081614915565b9050919050565b6000602082019050614c9c60008301846149aa565b92915050565b6000604082019050614cb760008301856149aa565b8181036020830152614cc9818461456a565b90509392505050565b6000604051905081810181811067ffffffffffffffff82111715614cf957614cf8614ed4565b5b8060405250919050565b600067ffffffffffffffff821115614d1e57614d1d614ed4565b5b601f19601f8301169050602081019050919050565b6000819050602082019050919050565b600081519050919050565b600081519050919050565b6000602082019050919050565b600082825260208201905092915050565b600082825260208201905092915050565b6000614d9382614de4565b9050919050565b6000614da582614de4565b9050919050565b60008115159050919050565b60007fffffffff0000000000000000000000000000000000000000000000000000000082169050919050565b600073ffffffffffffffffffffffffffffffffffffffff82169050919050565b6000819050919050565b60006bffffffffffffffffffffffff82169050919050565b6000614e3182614e6e565b9050919050565b6000614e4382614e04565b9050919050565b6000614e5582614e04565b9050919050565b6000614e6782614e04565b9050919050565b6000614e7982614e80565b9050919050565b6000614e8b82614de4565b9050919050565b82818337600083830152505050565b60005b83811015614ebf578082015181840152602081019050614ea4565b83811115614ece576000848401525b50505050565bfe5b6000601f19601f8301169050919050565b614ef081614d88565b8114614efb57600080fd5b50565b614f0781614dac565b8114614f1257600080fd5b50565b614f1e81614db8565b8114614f2957600080fd5b50565b614f3581614e04565b8114614f4057600080fd5b50565b614f4c81614e0e565b8114614f5757600080fd5b5056fe4552433732313a207472616e7366657220746f206e6f6e20455243373231526563656976657220696d706c656d656e7465724552433732313a207472616e7366657220746f20746865207a65726f20616464726573734552433732313a206f70657261746f7220717565727920666f72206e6f6e6578697374656e7420746f6b656e4552433732313a20617070726f76652063616c6c6572206973206e6f74206f776e6572206e6f7220617070726f76656420666f7220616c6c697066733a2f2f62616679626569676b667969756c63726d6677696861333478356563677463367037616f69656f73716a70346b363336367666686962756b7672652f6d657461646174612f4552433732313a2062616c616e636520717565727920666f7220746865207a65726f20616464726573734552433732313a206f776e657220717565727920666f72206e6f6e6578697374656e7420746f6b656e455243373231723a206d696e74696e67206d6f726520746f6b656e73207468616e20617661696c61626c654552433732313a20617070726f76656420717565727920666f72206e6f6e6578697374656e7420746f6b656e4552433732313a207472616e73666572206f6620746f6b656e2074686174206973206e6f74206f776e4552433732314d657461646174613a2055524920717565727920666f72206e6f6e6578697374656e7420746f6b656e4552433732313a20617070726f76616c20746f2063757272656e74206f776e6572455243373231723a206e65656420746f206d696e74206174206c65617374206f6e6520746f6b656e4552433732313a207472616e736665722063616c6c6572206973206e6f74206f776e6572206e6f7220617070726f766564a26469706673582212201b68e2dc049306da0bfe8090c06acadb436d036c0fbeb47b57dc42b8916117cb64736f6c63430007060033",
  "immutableReferences": {
    "2316": [
      {
        "length": 32,
        "start": 4938
      },
      {
        "length": 32,
        "start": 8924
      }
    ]
  },
  "source": "// SPDX-License-Identifier: MIT\npragma solidity ^0.7.6;\npragma abicoder v2;\n\n// import ERC20 iterface\nimport \"./IERC20.sol\";\n// import ERC721 iterface\n// import \"./ERC721.sol\";\nimport \"./ERC721r.sol\";\nimport \"./@rarible/royalties/contracts/impl/RoyaltiesV2Impl.sol\";\nimport \"./@rarible/royalties/contracts/LibPart.sol\";\nimport \"./@rarible/royalties/contracts/LibRoyaltiesV2.sol\";\nimport \"@openzeppelin/contracts/math/SafeMath.sol\";\n\n// \n/**\n * @dev Contract module which provides a basic access control mechanism, where\n * there is an account (an owner) that can be granted exclusive access to\n * specific functions.\n *\n * By default, the owner account will be the one that deploys the contract. This\n * can later be changed with {transferOwnership}.\n *\n * This module is used through inheritance. It will make available the modifier\n * `onlyOwner`, which can be applied to your functions to restrict their use to\n * the owner.\n */\nabstract contract Ownable is Context {\n    address private _owner;\n\n    event OwnershipTransferred(address indexed previousOwner, address indexed newOwner);\n\n    /**\n     * @dev Initializes the contract setting the deployer as the initial owner.\n     */\n    constructor() {\n        _setOwner(_msgSender());\n    }\n\n    /**\n     * @dev Returns the address of the current owner.\n     */\n    function owner() public view virtual returns (address) {\n        return _owner;\n    }\n\n    /**\n     * @dev Throws if called by any account other than the owner.\n     */\n    modifier onlyOwner() {\n        require(owner() == _msgSender(), \"Ownable: caller is not the owner\");\n        _;\n    }\n\n    /**\n     * @dev Leaves the contract without owner. It will not be possible to call\n     * `onlyOwner` functions anymore. Can only be called by the current owner.\n     *\n     * NOTE: Renouncing ownership will leave the contract without an owner,\n     * thereby removing any functionality that is only available to the owner.\n     */\n    function renounceOwnership() public virtual onlyOwner {\n        _setOwner(address(0));\n    }\n\n    /**\n     * @dev Transfers ownership of the contract to a new account (`newOwner`).\n     * Can only be called by the current owner.\n     */\n    function transferOwnership(address newOwner) public virtual onlyOwner {\n        require(newOwner != address(0), \"Ownable: new owner is the zero address\");\n        _setOwner(newOwner);\n    }\n\n    function _setOwner(address newOwner) private {\n        address oldOwner = _owner;\n        _owner = newOwner;\n        emit OwnershipTransferred(oldOwner, newOwner);\n    }\n}\n\n/**\n * @dev Contract module that helps prevent reentrant calls to a function.\n *\n * Inheriting from `ReentrancyGuard` will make the {nonReentrant} modifier\n * available, which can be applied to functions to make sure there are no nested\n * (reentrant) calls to them.\n *\n * Note that because there is a single `nonReentrant` guard, functions marked as\n * `nonReentrant` may not call one another. This can be worked around by making\n * those functions `private`, and then adding `external` `nonReentrant` entry\n * points to them.\n *\n * TIP: If you would like to learn more about reentrancy and alternative ways\n * to protect against it, check out our blog post\n * https://blog.openzeppelin.com/reentrancy-after-istanbul/[Reentrancy After Istanbul].\n */\nabstract contract ReentrancyGuard {\n    // Booleans are more expensive than uint256 or any type that takes up a full\n    // word because each write operation emits an extra SLOAD to first read the\n    // slot's contents, replace the bits taken up by the boolean, and then write\n    // back. This is the compiler's defense against contract upgrades and\n    // pointer aliasing, and it cannot be disabled.\n\n    // The values being non-zero value makes deployment a bit more expensive,\n    // but in exchange the refund on every call to nonReentrant will be lower in\n    // amount. Since refunds are capped to a percentage of the total\n    // transaction's gas, it is best to keep them low in cases like this one, to\n    // increase the likelihood of the full refund coming into effect.\n    uint256 private constant _NOT_ENTERED = 1;\n    uint256 private constant _ENTERED = 2;\n\n    uint256 private _status;\n\n    constructor () {\n        _status = _NOT_ENTERED;\n    }\n\n    /**\n     * @dev Prevents a contract from calling itself, directly or indirectly.\n     * Calling a `nonReentrant` function from another `nonReentrant`\n     * function is not supported. It is possible to prevent this from happening\n     * by making the `nonReentrant` function external, and make it call a\n     * `private` function that does the actual work.\n     */\n    modifier nonReentrant() {\n        // On the first call to nonReentrant, _notEntered will be true\n        require(_status != _ENTERED, \"ReentrancyGuard: reentrant call\");\n\n        // Any calls to nonReentrant after this point will fail\n        _status = _ENTERED;\n\n        _;\n\n        // By storing the original value once again, a refund is triggered (see\n        // https://eips.ethereum.org/EIPS/eip-2200)\n        _status = _NOT_ENTERED;\n    }\n}\n\n\n// NFT smart contract inherits ERC721 interface\ncontract luckBlocksNodes is ERC721r,Ownable,ReentrancyGuard,RoyaltiesV2Impl {\n  using SafeMath for uint256;\n\n    string public contractURI;\n    uint96 royaltyFeesInBips;\n    address royaltyAddress;\n\n  IERC20 krstm = IERC20(0x003eF6Ad3b1EFF56eA487E1561Ab3243a73a4b14); // USDC 0x78867BbEeF44f2326bF8DDd1941a4439382EF2A7\n  address daoAddress = 0x24d6496dc5913CD1f7F3742760414192adb7136b;\n\n  //allowed to mint\n  mapping(address=>bool) alloweds;\n\n  uint256 public nftPerAddressLimit = 1;\n\n  //configs\n  uint256 public remainingonphase = 50;\n  uint256 public currentPhase = 1;\n  bool whitelistphase = true;\n  uint256 public price = 10 * 10 **18;\n  uint256 public activeSupply = 250;\n  \n  mapping(address => uint256) public addressMintedBalance;\n\n  // Events list\n  event NftMinted(uint256 indexed remainingonphase, address indexed owner);\n  event NftBurned(uint256 indexed tokenId, address indexed owner);\n\n\n  // initialize contract while deployment with contract's collection name and token\n    constructor (uint96 _royaltyFeesInBips, string memory _contractURI) ERC721r(\"LuckBlocksNodes\", \"LBN\", 250) { \n        royaltyFeesInBips = _royaltyFeesInBips;\n        royaltyAddress = daoAddress;\n        contractURI = _contractURI;\n    }\n\n    function _baseURI() override internal view virtual returns (string memory)  {\n        return \"ipfs://bafybeigkfyiulcrmfwiha34x5ecgtc6p7aoieosqjp4k6366vfhibukvre/metadata/\";\n    }\n\n    modifier onlyWhitelist() {\n        require(alloweds[msg.sender]);\n        _;\n    }\n\n    function setRoyalties(uint _tokenId, address payable _royaltiesReceipientAddress, uint96 _percentageBasisPoints) internal {\n        LibPart.Part[] memory _royalties = new LibPart.Part[](1);\n        _royalties[0].value = _percentageBasisPoints;\n        _royalties[0].account = _royaltiesReceipientAddress;\n        _saveRoyalties(_tokenId, _royalties);\n    }\n    \n    function setRoyaltyInfo(address _receiver, uint96 _royaltyFeesInBips) public onlyOwner {\n        royaltyAddress = _receiver;\n        royaltyFeesInBips = _royaltyFeesInBips;\n    }\n\n    function setContractURI(string calldata _contractURI) public onlyOwner {\n        contractURI = _contractURI;\n    }\n\n    function supportsInterface(bytes4 interfaceId) public view virtual override returns (bool) {\n        if(interfaceId == LibRoyaltiesV2._INTERFACE_ID_ROYALTIES) {\n            return true;\n        } else if (interfaceId == 0x2a55205a){\n            return true;\n        }\n        return super.supportsInterface(interfaceId);\n    } \n\n    function raribleConfig() public onlyOwner {\n          for (uint i = 250; i > 0; i--) {\n            setRoyalties(i - 1,msg.sender,1000);\n          }\n    }\n\n    function royaltyInfo(uint256 _tokenId, uint256 _salePrice)\n        external\n        view\n        virtual\n        returns (address, uint256)\n    {\n        return (royaltyAddress, calculateRoyalty(_salePrice));\n    }\n\n    function calculateRoyalty(uint256 _salePrice) view public returns (uint256) {\n        return (_salePrice / 10000) * royaltyFeesInBips;\n    }\n\n    function setPrice(uint256 _price) public onlyOwner {\n       price = _price;\n    }\n\n    function changePhase() public onlyOwner {\n        currentPhase += 1;\n        remainingonphase = 50;\n    }\n\n    function whitelistPhase() public onlyOwner{\n      if(whitelistphase == true){\n       whitelistphase = false;\n      }else{\n       whitelistphase = true;\n      }\n    }\n\n    // only for tests\n    function mintAll() public nonReentrant {\n      \n      _mintRandom(msg.sender, 250);\n\n    }\n\n    function mint() public payable nonReentrant {\n         //price and lock logic\n         require(krstm.balanceOf(msg.sender) >= 10 * 10 **18, \"Not enough KRSTMs::10\");\n         require(remainingonphase > 0, \"No NFT available on that mint phase\");\n         if(whitelistphase == true){\n           require(alloweds[msg.sender], \"You are not whitelisted for mint.\");\n         }else{\n           require(msg.value >= price, \"Value below price\");\n         }\n         if(currentPhase >= 2){\n          uint256 ownerMintedCount = addressMintedBalance[msg.sender];\n          require(ownerMintedCount <= nftPerAddressLimit, \"max NFT per address exceeded\");\n          addressMintedBalance[msg.sender]++;\n         }\n\n         krstm.transferFrom(msg.sender,address(this),10 * 10 **18);\n\n         _mintRandom(msg.sender, 1);\n  \n         --remainingonphase;\n\n        emit NftMinted(remainingonphase,msg.sender);\n\n    }\n  \n    function burn(uint256 tokenId) public virtual {\n        require(_isApprovedOrOwner(_msgSender(), tokenId), \"ERC721Burnable: caller is not owner nor approved\");\n        require(activeSupply > 50, \"There's a Minimum of 50 NFTs that need to exist\");\n        //Burn the token and recover the locked 10 KRSTMs less 30% fees\n          krstm.transfer(msg.sender,7 * 10 **18);\n          krstm.transfer(daoAddress,3 * 10 **18);\n        //solhint-disable-next-line max-line-length\n        --activeSupply;\n        _burn(tokenId);\n        \n        emit NftBurned(tokenId, msg.sender);\n\n    }\n      \n    function withdrawMatic() public payable onlyOwner {\n        require(payable(daoAddress).send(address(this).balance));\n    }\n\n  // get owner of the token\n  function getTokenOwner(uint256 _tokenId) public view returns(address) {\n    address _to = ownerOf(_tokenId);\n    return _to;\n  }\n\n  // get metadata of the token\n  function getTokenMetaData(uint _tokenId) public view returns(string memory) {\n    string memory tm = tokenURI(_tokenId);\n    return tm;\n  }\n\n  // get total number of tokens minted so far\n  function getNumberOfTokensMinted() public view returns(uint256) {\n    uint256 total = totalSupply();\n    return total;\n  }\n\n  // get total number of tokens owned by an address\n   function getTotalNumberOfTokensOwnedByAnAddress(address _owner) public view returns(uint256) {\n     uint256 totalNumberOfTokensOwned = balanceOf(_owner);\n     return totalNumberOfTokensOwned;\n   }\n\n  // check if the token already exists\n   function getTokenExists(uint256 _tokenId) public view returns(bool) {\n     bool tokenExists = _exists(_tokenId);\n     return tokenExists;\n   }\n\n  function whitelistAddress (address user) public onlyOwner {\n        alloweds[user]=true;\n  }   \n\n  function delistAddress (address user) public onlyOwner {\n        alloweds[user]=false;\n  }   \n\n}",
  "sourcePath": "/mnt/c/Users/AMD Ryzen/Downloads/Phallus-master/Phallus-master/src/contracts/LuckblocksNodes.sol",
  "compiler": {
    "name": "solc",
    "version": "0.7.6+commit.7338295f.Emscripten.clang"
  },
  "schemaVersion": "3.4.7",
  "updatedAt": "2022-11-07T01:45:24.588Z",
  "networkType": "ethereum",
  "devdoc": {
    "kind": "dev",
    "methods": {
      "approve(address,uint256)": {
        "details": "See {IERC721-approve}."
      },
      "balanceOf(address)": {
        "details": "See {IERC721-balanceOf}."
      },
      "getApproved(uint256)": {
        "details": "See {IERC721-getApproved}."
      },
      "isApprovedForAll(address,address)": {
        "details": "See {IERC721-isApprovedForAll}."
      },
      "name()": {
        "details": "See {IERC721Metadata-name}."
      },
      "owner()": {
        "details": "Returns the address of the current owner."
      },
      "ownerOf(uint256)": {
        "details": "See {IERC721-ownerOf}."
      },
      "renounceOwnership()": {
        "details": "Leaves the contract without owner. It will not be possible to call `onlyOwner` functions anymore. Can only be called by the current owner. NOTE: Renouncing ownership will leave the contract without an owner, thereby removing any functionality that is only available to the owner."
      },
      "safeTransferFrom(address,address,uint256)": {
        "details": "See {IERC721-safeTransferFrom}."
      },
      "safeTransferFrom(address,address,uint256,bytes)": {
        "details": "See {IERC721-safeTransferFrom}."
      },
      "setApprovalForAll(address,bool)": {
        "details": "See {IERC721-setApprovalForAll}."
      },
      "supportsInterface(bytes4)": {
        "details": "See {IERC165-supportsInterface}."
      },
      "symbol()": {
        "details": "See {IERC721Metadata-symbol}."
      },
      "tokenURI(uint256)": {
        "details": "See {IERC721Metadata-tokenURI}."
      },
      "transferFrom(address,address,uint256)": {
        "details": "See {IERC721-transferFrom}."
      },
      "transferOwnership(address)": {
        "details": "Transfers ownership of the contract to a new account (`newOwner`). Can only be called by the current owner."
      }
    },
    "version": 1
  },
  "userdoc": {
    "kind": "user",
    "methods": {},
    "version": 1
  }
}